{
	"VehicleTrackingSystem.sol": {
		"VehicleTrackingSystem": {
			"abi": [
				{
					"inputs": [],
					"stateMutability": "nonpayable",
					"type": "constructor"
				},
				{
					"anonymous": false,
					"inputs": [
						{
							"indexed": false,
							"internalType": "uint256",
							"name": "CarId",
							"type": "uint256"
						},
						{
							"indexed": true,
							"internalType": "address",
							"name": "manufacturer",
							"type": "address"
						},
						{
							"indexed": false,
							"internalType": "string",
							"name": "car_name",
							"type": "string"
						},
						{
							"indexed": false,
							"internalType": "string",
							"name": "car_model",
							"type": "string"
						},
						{
							"indexed": false,
							"internalType": "string",
							"name": "origin",
							"type": "string"
						},
						{
							"indexed": false,
							"internalType": "uint256",
							"name": "price",
							"type": "uint256"
						},
						{
							"indexed": false,
							"internalType": "uint256",
							"name": "timestamp",
							"type": "uint256"
						}
					],
					"name": "CarRegistered",
					"type": "event"
				},
				{
					"inputs": [],
					"name": "CarCount",
					"outputs": [
						{
							"internalType": "uint256",
							"name": "",
							"type": "uint256"
						}
					],
					"stateMutability": "view",
					"type": "function"
				},
				{
					"inputs": [
						{
							"internalType": "string",
							"name": "_car_name",
							"type": "string"
						},
						{
							"internalType": "string",
							"name": "_car_model",
							"type": "string"
						},
						{
							"internalType": "string",
							"name": "_origin",
							"type": "string"
						},
						{
							"internalType": "uint256",
							"name": "_price",
							"type": "uint256"
						}
					],
					"name": "RegisterCar",
					"outputs": [],
					"stateMutability": "nonpayable",
					"type": "function"
				},
				{
					"inputs": [
						{
							"internalType": "uint256",
							"name": "",
							"type": "uint256"
						}
					],
					"name": "cars",
					"outputs": [
						{
							"internalType": "address",
							"name": "manufacturer",
							"type": "address"
						},
						{
							"internalType": "string",
							"name": "car_name",
							"type": "string"
						},
						{
							"internalType": "string",
							"name": "car_model",
							"type": "string"
						},
						{
							"internalType": "string",
							"name": "origin",
							"type": "string"
						},
						{
							"internalType": "uint256",
							"name": "price",
							"type": "uint256"
						},
						{
							"internalType": "uint256",
							"name": "timestamp",
							"type": "uint256"
						}
					],
					"stateMutability": "view",
					"type": "function"
				},
				{
					"inputs": [
						{
							"internalType": "uint256",
							"name": "_productId",
							"type": "uint256"
						}
					],
					"name": "getCarDetails",
					"outputs": [
						{
							"internalType": "string",
							"name": "_car_name",
							"type": "string"
						},
						{
							"internalType": "address",
							"name": "manufacturer",
							"type": "address"
						},
						{
							"internalType": "string",
							"name": "car_model",
							"type": "string"
						},
						{
							"internalType": "uint256",
							"name": "price",
							"type": "uint256"
						},
						{
							"internalType": "uint256",
							"name": "",
							"type": "uint256"
						}
					],
					"stateMutability": "view",
					"type": "function"
				},
				{
					"inputs": [],
					"name": "owner",
					"outputs": [
						{
							"internalType": "address",
							"name": "",
							"type": "address"
						}
					],
					"stateMutability": "view",
					"type": "function"
				}
			],
			"devdoc": {
				"kind": "dev",
				"methods": {},
				"version": 1
			},
			"evm": {
				"assembly": "    /* \"VehicleTrackingSystem.sol\":60:2135  contract VehicleTrackingSystem {... */\n  mstore(0x40, 0x80)\n    /* \"VehicleTrackingSystem.sol\":816:934  constructor() {... */\n  callvalue\n  dup1\n  iszero\n  tag_1\n  jumpi\n  revert(0x00, 0x00)\ntag_1:\n  pop\n    /* \"VehicleTrackingSystem.sol\":849:859  msg.sender */\n  caller\n    /* \"VehicleTrackingSystem.sol\":841:846  owner */\n  0x00\n  0x00\n    /* \"VehicleTrackingSystem.sol\":841:859  owner = msg.sender */\n  0x0100\n  exp\n  dup2\n  sload\n  dup2\n  0xffffffffffffffffffffffffffffffffffffffff\n  mul\n  not\n  and\n  swap1\n  dup4\n  0xffffffffffffffffffffffffffffffffffffffff\n  and\n  mul\n  or\n  swap1\n  sstore\n  pop\n    /* \"VehicleTrackingSystem.sol\":60:2135  contract VehicleTrackingSystem {... */\n  dataSize(sub_0)\n  dup1\n  dataOffset(sub_0)\n  0x00\n  codecopy\n  0x00\n  return\nstop\n\nsub_0: assembly {\n        /* \"VehicleTrackingSystem.sol\":60:2135  contract VehicleTrackingSystem {... */\n      mstore(0x40, 0x80)\n      callvalue\n      dup1\n      iszero\n      tag_1\n      jumpi\n      revert(0x00, 0x00)\n    tag_1:\n      pop\n      jumpi(tag_2, lt(calldatasize, 0x04))\n      shr(0xe0, calldataload(0x00))\n      dup1\n      0x0101e185\n      eq\n      tag_3\n      jumpi\n      dup1\n      0x449c0924\n      eq\n      tag_4\n      jumpi\n      dup1\n      0x472ec454\n      eq\n      tag_5\n      jumpi\n      dup1\n      0x8da5cb5b\n      eq\n      tag_6\n      jumpi\n      dup1\n      0xf7746e36\n      eq\n      tag_7\n      jumpi\n    tag_2:\n      revert(0x00, 0x00)\n        /* \"VehicleTrackingSystem.sol\":977:1531  function RegisterCar( string memory _car_name, string memory _car_model, string memory _origin, uint256 _price) public onlyOwner {... */\n    tag_3:\n      tag_8\n      0x04\n      dup1\n      calldatasize\n      sub\n      dup2\n      add\n      swap1\n      tag_9\n      swap2\n      swap1\n      tag_10\n      jump\t// in\n    tag_9:\n      tag_11\n      jump\t// in\n    tag_8:\n      stop\n        /* \"VehicleTrackingSystem.sol\":125:148  uint256 public CarCount */\n    tag_4:\n      tag_12\n      tag_13\n      jump\t// in\n    tag_12:\n      mload(0x40)\n      tag_14\n      swap2\n      swap1\n      tag_15\n      jump\t// in\n    tag_14:\n      mload(0x40)\n      dup1\n      swap2\n      sub\n      swap1\n      return\n        /* \"VehicleTrackingSystem.sol\":1589:2132  function getCarDetails(uint256 _productId) public view returns (string memory _car_name, address manufacturer, string memory car_model, uint256 price, uint256) {... */\n    tag_5:\n      tag_16\n      0x04\n      dup1\n      calldatasize\n      sub\n      dup2\n      add\n      swap1\n      tag_17\n      swap2\n      swap1\n      tag_18\n      jump\t// in\n    tag_17:\n      tag_19\n      jump\t// in\n    tag_16:\n      mload(0x40)\n      tag_20\n      swap6\n      swap5\n      swap4\n      swap3\n      swap2\n      swap1\n      tag_21\n      jump\t// in\n    tag_20:\n      mload(0x40)\n      dup1\n      swap2\n      sub\n      swap1\n      return\n        /* \"VehicleTrackingSystem.sol\":98:118  address public owner */\n    tag_6:\n      tag_22\n      tag_23\n      jump\t// in\n    tag_22:\n      mload(0x40)\n      tag_24\n      swap2\n      swap1\n      tag_25\n      jump\t// in\n    tag_24:\n      mload(0x40)\n      dup1\n      swap2\n      sub\n      swap1\n      return\n        /* \"VehicleTrackingSystem.sol\":414:449  mapping(uint256 => Car) public cars */\n    tag_7:\n      tag_26\n      0x04\n      dup1\n      calldatasize\n      sub\n      dup2\n      add\n      swap1\n      tag_27\n      swap2\n      swap1\n      tag_18\n      jump\t// in\n    tag_27:\n      tag_28\n      jump\t// in\n    tag_26:\n      mload(0x40)\n      tag_29\n      swap7\n      swap6\n      swap5\n      swap4\n      swap3\n      swap2\n      swap1\n      tag_30\n      jump\t// in\n    tag_29:\n      mload(0x40)\n      dup1\n      swap2\n      sub\n      swap1\n      return\n        /* \"VehicleTrackingSystem.sol\":977:1531  function RegisterCar( string memory _car_name, string memory _car_model, string memory _origin, uint256 _price) public onlyOwner {... */\n    tag_11:\n        /* \"VehicleTrackingSystem.sol\":757:762  owner */\n      0x00\n      0x00\n      swap1\n      sload\n      swap1\n      0x0100\n      exp\n      swap1\n      div\n      0xffffffffffffffffffffffffffffffffffffffff\n      and\n        /* \"VehicleTrackingSystem.sol\":743:762  msg.sender == owner */\n      0xffffffffffffffffffffffffffffffffffffffff\n      and\n        /* \"VehicleTrackingSystem.sol\":743:753  msg.sender */\n      caller\n        /* \"VehicleTrackingSystem.sol\":743:762  msg.sender == owner */\n      0xffffffffffffffffffffffffffffffffffffffff\n      and\n      eq\n        /* \"VehicleTrackingSystem.sol\":735:788  require(msg.sender == owner, \"You are not the owner\") */\n      tag_32\n      jumpi\n      mload(0x40)\n      0x08c379a000000000000000000000000000000000000000000000000000000000\n      dup2\n      mstore\n      0x04\n      add\n      tag_33\n      swap1\n      tag_34\n      jump\t// in\n    tag_33:\n      mload(0x40)\n      dup1\n      swap2\n      sub\n      swap1\n      revert\n    tag_32:\n        /* \"VehicleTrackingSystem.sol\":1176:1184  CarCount */\n      0x01\n      0x00\n        /* \"VehicleTrackingSystem.sol\":1176:1186  CarCount++ */\n      dup2\n      sload\n      dup1\n      swap3\n      swap2\n      swap1\n      tag_36\n      swap1\n      tag_37\n      jump\t// in\n    tag_36:\n      swap2\n      swap1\n      pop\n      sstore\n      pop\n        /* \"VehicleTrackingSystem.sol\":1278:1350  Car(msg.sender, _car_name, _car_model, _origin, _price, block.timestamp) */\n      mload(0x40)\n      dup1\n      0xc0\n      add\n      0x40\n      mstore\n      dup1\n        /* \"VehicleTrackingSystem.sol\":1282:1292  msg.sender */\n      caller\n        /* \"VehicleTrackingSystem.sol\":1278:1350  Car(msg.sender, _car_name, _car_model, _origin, _price, block.timestamp) */\n      0xffffffffffffffffffffffffffffffffffffffff\n      and\n      dup2\n      mstore\n      0x20\n      add\n        /* \"VehicleTrackingSystem.sol\":1294:1303  _car_name */\n      dup6\n        /* \"VehicleTrackingSystem.sol\":1278:1350  Car(msg.sender, _car_name, _car_model, _origin, _price, block.timestamp) */\n      dup2\n      mstore\n      0x20\n      add\n        /* \"VehicleTrackingSystem.sol\":1305:1315  _car_model */\n      dup5\n        /* \"VehicleTrackingSystem.sol\":1278:1350  Car(msg.sender, _car_name, _car_model, _origin, _price, block.timestamp) */\n      dup2\n      mstore\n      0x20\n      add\n        /* \"VehicleTrackingSystem.sol\":1317:1324  _origin */\n      dup4\n        /* \"VehicleTrackingSystem.sol\":1278:1350  Car(msg.sender, _car_name, _car_model, _origin, _price, block.timestamp) */\n      dup2\n      mstore\n      0x20\n      add\n        /* \"VehicleTrackingSystem.sol\":1326:1332  _price */\n      dup3\n        /* \"VehicleTrackingSystem.sol\":1278:1350  Car(msg.sender, _car_name, _car_model, _origin, _price, block.timestamp) */\n      dup2\n      mstore\n      0x20\n      add\n        /* \"VehicleTrackingSystem.sol\":1334:1349  block.timestamp */\n      timestamp\n        /* \"VehicleTrackingSystem.sol\":1278:1350  Car(msg.sender, _car_name, _car_model, _origin, _price, block.timestamp) */\n      dup2\n      mstore\n      pop\n        /* \"VehicleTrackingSystem.sol\":1261:1265  cars */\n      0x02\n        /* \"VehicleTrackingSystem.sol\":1261:1275  cars[CarCount] */\n      0x00\n        /* \"VehicleTrackingSystem.sol\":1266:1274  CarCount */\n      sload(0x01)\n        /* \"VehicleTrackingSystem.sol\":1261:1275  cars[CarCount] */\n      dup2\n      mstore\n      0x20\n      add\n      swap1\n      dup2\n      mstore\n      0x20\n      add\n      0x00\n      keccak256\n        /* \"VehicleTrackingSystem.sol\":1261:1350  cars[CarCount] = Car(msg.sender, _car_name, _car_model, _origin, _price, block.timestamp) */\n      0x00\n      dup3\n      add\n      mload\n      dup2\n      0x00\n      add\n      exp(0x0100, 0x00)\n      dup2\n      sload\n      dup2\n      0xffffffffffffffffffffffffffffffffffffffff\n      mul\n      not\n      and\n      swap1\n      dup4\n      0xffffffffffffffffffffffffffffffffffffffff\n      and\n      mul\n      or\n      swap1\n      sstore\n      pop\n      0x20\n      dup3\n      add\n      mload\n      dup2\n      0x01\n      add\n      swap1\n      dup2\n      tag_38\n      swap2\n      swap1\n      tag_39\n      jump\t// in\n    tag_38:\n      pop\n      0x40\n      dup3\n      add\n      mload\n      dup2\n      0x02\n      add\n      swap1\n      dup2\n      tag_40\n      swap2\n      swap1\n      tag_39\n      jump\t// in\n    tag_40:\n      pop\n      0x60\n      dup3\n      add\n      mload\n      dup2\n      0x03\n      add\n      swap1\n      dup2\n      tag_41\n      swap2\n      swap1\n      tag_39\n      jump\t// in\n    tag_41:\n      pop\n      0x80\n      dup3\n      add\n      mload\n      dup2\n      0x04\n      add\n      sstore\n      0xa0\n      dup3\n      add\n      mload\n      dup2\n      0x05\n      add\n      sstore\n      swap1\n      pop\n      pop\n        /* \"VehicleTrackingSystem.sol\":1455:1465  msg.sender */\n      caller\n        /* \"VehicleTrackingSystem.sol\":1431:1523  CarRegistered(CarCount, msg.sender, _car_name, _car_model, _origin, _price, block.timestamp) */\n      0xffffffffffffffffffffffffffffffffffffffff\n      and\n      0x9bf0e8216076488ebc6f25b1db9caa1bcc61b48ef9e6f75e34c4f369706e426a\n        /* \"VehicleTrackingSystem.sol\":1445:1453  CarCount */\n      sload(0x01)\n        /* \"VehicleTrackingSystem.sol\":1467:1476  _car_name */\n      dup7\n        /* \"VehicleTrackingSystem.sol\":1478:1488  _car_model */\n      dup7\n        /* \"VehicleTrackingSystem.sol\":1490:1497  _origin */\n      dup7\n        /* \"VehicleTrackingSystem.sol\":1499:1505  _price */\n      dup7\n        /* \"VehicleTrackingSystem.sol\":1507:1522  block.timestamp */\n      timestamp\n        /* \"VehicleTrackingSystem.sol\":1431:1523  CarRegistered(CarCount, msg.sender, _car_name, _car_model, _origin, _price, block.timestamp) */\n      mload(0x40)\n      tag_42\n      swap7\n      swap6\n      swap5\n      swap4\n      swap3\n      swap2\n      swap1\n      tag_43\n      jump\t// in\n    tag_42:\n      mload(0x40)\n      dup1\n      swap2\n      sub\n      swap1\n      log2\n        /* \"VehicleTrackingSystem.sol\":977:1531  function RegisterCar( string memory _car_name, string memory _car_model, string memory _origin, uint256 _price) public onlyOwner {... */\n      pop\n      pop\n      pop\n      pop\n      jump\t// out\n        /* \"VehicleTrackingSystem.sol\":125:148  uint256 public CarCount */\n    tag_13:\n      sload(0x01)\n      dup2\n      jump\t// out\n        /* \"VehicleTrackingSystem.sol\":1589:2132  function getCarDetails(uint256 _productId) public view returns (string memory _car_name, address manufacturer, string memory car_model, uint256 price, uint256) {... */\n    tag_19:\n        /* \"VehicleTrackingSystem.sol\":1653:1676  string memory _car_name */\n      0x60\n        /* \"VehicleTrackingSystem.sol\":1678:1698  address manufacturer */\n      0x00\n        /* \"VehicleTrackingSystem.sol\":1700:1723  string memory car_model */\n      0x60\n        /* \"VehicleTrackingSystem.sol\":1725:1738  uint256 price */\n      0x00\n        /* \"VehicleTrackingSystem.sol\":1740:1747  uint256 */\n      0x00\n        /* \"VehicleTrackingSystem.sol\":1835:1836  0 */\n      0x00\n        /* \"VehicleTrackingSystem.sol\":1822:1832  _productId */\n      dup7\n        /* \"VehicleTrackingSystem.sol\":1822:1836  _productId > 0 */\n      gt\n        /* \"VehicleTrackingSystem.sol\":1822:1862  _productId > 0 && _productId <= CarCount */\n      dup1\n      iszero\n      tag_45\n      jumpi\n      pop\n        /* \"VehicleTrackingSystem.sol\":1854:1862  CarCount */\n      sload(0x01)\n        /* \"VehicleTrackingSystem.sol\":1840:1850  _productId */\n      dup7\n        /* \"VehicleTrackingSystem.sol\":1840:1862  _productId <= CarCount */\n      gt\n      iszero\n        /* \"VehicleTrackingSystem.sol\":1822:1862  _productId > 0 && _productId <= CarCount */\n    tag_45:\n        /* \"VehicleTrackingSystem.sol\":1814:1885  require(_productId > 0 && _productId <= CarCount, \"Invalid product ID\") */\n      tag_46\n      jumpi\n      mload(0x40)\n      0x08c379a000000000000000000000000000000000000000000000000000000000\n      dup2\n      mstore\n      0x04\n      add\n      tag_47\n      swap1\n      tag_48\n      jump\t// in\n    tag_47:\n      mload(0x40)\n      dup1\n      swap2\n      sub\n      swap1\n      revert\n    tag_46:\n        /* \"VehicleTrackingSystem.sol\":1975:1994  Car storage product */\n      0x00\n        /* \"VehicleTrackingSystem.sol\":1997:2001  cars */\n      0x02\n        /* \"VehicleTrackingSystem.sol\":1997:2013  cars[_productId] */\n      0x00\n        /* \"VehicleTrackingSystem.sol\":2002:2012  _productId */\n      dup9\n        /* \"VehicleTrackingSystem.sol\":1997:2013  cars[_productId] */\n      dup2\n      mstore\n      0x20\n      add\n      swap1\n      dup2\n      mstore\n      0x20\n      add\n      0x00\n      keccak256\n        /* \"VehicleTrackingSystem.sol\":1975:2013  Car storage product = cars[_productId] */\n      swap1\n      pop\n        /* \"VehicleTrackingSystem.sol\":2032:2039  product */\n      dup1\n        /* \"VehicleTrackingSystem.sol\":2032:2048  product.car_name */\n      0x01\n      add\n        /* \"VehicleTrackingSystem.sol\":2050:2057  product */\n      dup2\n        /* \"VehicleTrackingSystem.sol\":2050:2070  product.manufacturer */\n      0x00\n      add\n      0x00\n      swap1\n      sload\n      swap1\n      0x0100\n      exp\n      swap1\n      div\n      0xffffffffffffffffffffffffffffffffffffffff\n      and\n        /* \"VehicleTrackingSystem.sol\":2072:2079  product */\n      dup3\n        /* \"VehicleTrackingSystem.sol\":2072:2089  product.car_model */\n      0x02\n      add\n        /* \"VehicleTrackingSystem.sol\":2091:2098  product */\n      dup4\n        /* \"VehicleTrackingSystem.sol\":2091:2104  product.price */\n      0x04\n      add\n      sload\n        /* \"VehicleTrackingSystem.sol\":2106:2113  product */\n      dup5\n        /* \"VehicleTrackingSystem.sol\":2106:2123  product.timestamp */\n      0x05\n      add\n      sload\n        /* \"VehicleTrackingSystem.sol\":2024:2124  return (product.car_name, product.manufacturer, product.car_model, product.price, product.timestamp) */\n      dup5\n      dup1\n      sload\n      tag_49\n      swap1\n      tag_50\n      jump\t// in\n    tag_49:\n      dup1\n      0x1f\n      add\n      0x20\n      dup1\n      swap2\n      div\n      mul\n      0x20\n      add\n      mload(0x40)\n      swap1\n      dup2\n      add\n      0x40\n      mstore\n      dup1\n      swap3\n      swap2\n      swap1\n      dup2\n      dup2\n      mstore\n      0x20\n      add\n      dup3\n      dup1\n      sload\n      tag_51\n      swap1\n      tag_50\n      jump\t// in\n    tag_51:\n      dup1\n      iszero\n      tag_52\n      jumpi\n      dup1\n      0x1f\n      lt\n      tag_53\n      jumpi\n      0x0100\n      dup1\n      dup4\n      sload\n      div\n      mul\n      dup4\n      mstore\n      swap2\n      0x20\n      add\n      swap2\n      jump(tag_52)\n    tag_53:\n      dup3\n      add\n      swap2\n      swap1\n      0x00\n      mstore\n      keccak256(0x00, 0x20)\n      swap1\n    tag_54:\n      dup2\n      sload\n      dup2\n      mstore\n      swap1\n      0x01\n      add\n      swap1\n      0x20\n      add\n      dup1\n      dup4\n      gt\n      tag_54\n      jumpi\n      dup3\n      swap1\n      sub\n      0x1f\n      and\n      dup3\n      add\n      swap2\n    tag_52:\n      pop\n      pop\n      pop\n      pop\n      pop\n      swap5\n      pop\n      dup3\n      dup1\n      sload\n      tag_55\n      swap1\n      tag_50\n      jump\t// in\n    tag_55:\n      dup1\n      0x1f\n      add\n      0x20\n      dup1\n      swap2\n      div\n      mul\n      0x20\n      add\n      mload(0x40)\n      swap1\n      dup2\n      add\n      0x40\n      mstore\n      dup1\n      swap3\n      swap2\n      swap1\n      dup2\n      dup2\n      mstore\n      0x20\n      add\n      dup3\n      dup1\n      sload\n      tag_56\n      swap1\n      tag_50\n      jump\t// in\n    tag_56:\n      dup1\n      iszero\n      tag_57\n      jumpi\n      dup1\n      0x1f\n      lt\n      tag_58\n      jumpi\n      0x0100\n      dup1\n      dup4\n      sload\n      div\n      mul\n      dup4\n      mstore\n      swap2\n      0x20\n      add\n      swap2\n      jump(tag_57)\n    tag_58:\n      dup3\n      add\n      swap2\n      swap1\n      0x00\n      mstore\n      keccak256(0x00, 0x20)\n      swap1\n    tag_59:\n      dup2\n      sload\n      dup2\n      mstore\n      swap1\n      0x01\n      add\n      swap1\n      0x20\n      add\n      dup1\n      dup4\n      gt\n      tag_59\n      jumpi\n      dup3\n      swap1\n      sub\n      0x1f\n      and\n      dup3\n      add\n      swap2\n    tag_57:\n      pop\n      pop\n      pop\n      pop\n      pop\n      swap3\n      pop\n      swap6\n      pop\n      swap6\n      pop\n      swap6\n      pop\n      swap6\n      pop\n      swap6\n      pop\n      pop\n        /* \"VehicleTrackingSystem.sol\":1589:2132  function getCarDetails(uint256 _productId) public view returns (string memory _car_name, address manufacturer, string memory car_model, uint256 price, uint256) {... */\n      swap2\n      swap4\n      swap6\n      swap1\n      swap3\n      swap5\n      pop\n      jump\t// out\n        /* \"VehicleTrackingSystem.sol\":98:118  address public owner */\n    tag_23:\n      0x00\n      0x00\n      swap1\n      sload\n      swap1\n      0x0100\n      exp\n      swap1\n      div\n      0xffffffffffffffffffffffffffffffffffffffff\n      and\n      dup2\n      jump\t// out\n        /* \"VehicleTrackingSystem.sol\":414:449  mapping(uint256 => Car) public cars */\n    tag_28:\n      mstore(0x20, 0x02)\n      dup1\n      0x00\n      mstore\n      keccak256(0x00, 0x40)\n      0x00\n      swap2\n      pop\n      swap1\n      pop\n      dup1\n      0x00\n      add\n      0x00\n      swap1\n      sload\n      swap1\n      0x0100\n      exp\n      swap1\n      div\n      0xffffffffffffffffffffffffffffffffffffffff\n      and\n      swap1\n      dup1\n      0x01\n      add\n      dup1\n      sload\n      tag_60\n      swap1\n      tag_50\n      jump\t// in\n    tag_60:\n      dup1\n      0x1f\n      add\n      0x20\n      dup1\n      swap2\n      div\n      mul\n      0x20\n      add\n      mload(0x40)\n      swap1\n      dup2\n      add\n      0x40\n      mstore\n      dup1\n      swap3\n      swap2\n      swap1\n      dup2\n      dup2\n      mstore\n      0x20\n      add\n      dup3\n      dup1\n      sload\n      tag_61\n      swap1\n      tag_50\n      jump\t// in\n    tag_61:\n      dup1\n      iszero\n      tag_62\n      jumpi\n      dup1\n      0x1f\n      lt\n      tag_63\n      jumpi\n      0x0100\n      dup1\n      dup4\n      sload\n      div\n      mul\n      dup4\n      mstore\n      swap2\n      0x20\n      add\n      swap2\n      jump(tag_62)\n    tag_63:\n      dup3\n      add\n      swap2\n      swap1\n      0x00\n      mstore\n      keccak256(0x00, 0x20)\n      swap1\n    tag_64:\n      dup2\n      sload\n      dup2\n      mstore\n      swap1\n      0x01\n      add\n      swap1\n      0x20\n      add\n      dup1\n      dup4\n      gt\n      tag_64\n      jumpi\n      dup3\n      swap1\n      sub\n      0x1f\n      and\n      dup3\n      add\n      swap2\n    tag_62:\n      pop\n      pop\n      pop\n      pop\n      pop\n      swap1\n      dup1\n      0x02\n      add\n      dup1\n      sload\n      tag_65\n      swap1\n      tag_50\n      jump\t// in\n    tag_65:\n      dup1\n      0x1f\n      add\n      0x20\n      dup1\n      swap2\n      div\n      mul\n      0x20\n      add\n      mload(0x40)\n      swap1\n      dup2\n      add\n      0x40\n      mstore\n      dup1\n      swap3\n      swap2\n      swap1\n      dup2\n      dup2\n      mstore\n      0x20\n      add\n      dup3\n      dup1\n      sload\n      tag_66\n      swap1\n      tag_50\n      jump\t// in\n    tag_66:\n      dup1\n      iszero\n      tag_67\n      jumpi\n      dup1\n      0x1f\n      lt\n      tag_68\n      jumpi\n      0x0100\n      dup1\n      dup4\n      sload\n      div\n      mul\n      dup4\n      mstore\n      swap2\n      0x20\n      add\n      swap2\n      jump(tag_67)\n    tag_68:\n      dup3\n      add\n      swap2\n      swap1\n      0x00\n      mstore\n      keccak256(0x00, 0x20)\n      swap1\n    tag_69:\n      dup2\n      sload\n      dup2\n      mstore\n      swap1\n      0x01\n      add\n      swap1\n      0x20\n      add\n      dup1\n      dup4\n      gt\n      tag_69\n      jumpi\n      dup3\n      swap1\n      sub\n      0x1f\n      and\n      dup3\n      add\n      swap2\n    tag_67:\n      pop\n      pop\n      pop\n      pop\n      pop\n      swap1\n      dup1\n      0x03\n      add\n      dup1\n      sload\n      tag_70\n      swap1\n      tag_50\n      jump\t// in\n    tag_70:\n      dup1\n      0x1f\n      add\n      0x20\n      dup1\n      swap2\n      div\n      mul\n      0x20\n      add\n      mload(0x40)\n      swap1\n      dup2\n      add\n      0x40\n      mstore\n      dup1\n      swap3\n      swap2\n      swap1\n      dup2\n      dup2\n      mstore\n      0x20\n      add\n      dup3\n      dup1\n      sload\n      tag_71\n      swap1\n      tag_50\n      jump\t// in\n    tag_71:\n      dup1\n      iszero\n      tag_72\n      jumpi\n      dup1\n      0x1f\n      lt\n      tag_73\n      jumpi\n      0x0100\n      dup1\n      dup4\n      sload\n      div\n      mul\n      dup4\n      mstore\n      swap2\n      0x20\n      add\n      swap2\n      jump(tag_72)\n    tag_73:\n      dup3\n      add\n      swap2\n      swap1\n      0x00\n      mstore\n      keccak256(0x00, 0x20)\n      swap1\n    tag_74:\n      dup2\n      sload\n      dup2\n      mstore\n      swap1\n      0x01\n      add\n      swap1\n      0x20\n      add\n      dup1\n      dup4\n      gt\n      tag_74\n      jumpi\n      dup3\n      swap1\n      sub\n      0x1f\n      and\n      dup3\n      add\n      swap2\n    tag_72:\n      pop\n      pop\n      pop\n      pop\n      pop\n      swap1\n      dup1\n      0x04\n      add\n      sload\n      swap1\n      dup1\n      0x05\n      add\n      sload\n      swap1\n      pop\n      dup7\n      jump\t// out\n        /* \"#utility.yul\":7:82   */\n    tag_75:\n        /* \"#utility.yul\":40:46   */\n      0x00\n        /* \"#utility.yul\":73:75   */\n      0x40\n        /* \"#utility.yul\":67:76   */\n      mload\n        /* \"#utility.yul\":57:76   */\n      swap1\n      pop\n        /* \"#utility.yul\":7:82   */\n      swap1\n      jump\t// out\n        /* \"#utility.yul\":88:205   */\n    tag_76:\n        /* \"#utility.yul\":197:198   */\n      0x00\n        /* \"#utility.yul\":194:195   */\n      0x00\n        /* \"#utility.yul\":187:199   */\n      revert\n        /* \"#utility.yul\":211:328   */\n    tag_77:\n        /* \"#utility.yul\":320:321   */\n      0x00\n        /* \"#utility.yul\":317:318   */\n      0x00\n        /* \"#utility.yul\":310:322   */\n      revert\n        /* \"#utility.yul\":334:451   */\n    tag_78:\n        /* \"#utility.yul\":443:444   */\n      0x00\n        /* \"#utility.yul\":440:441   */\n      0x00\n        /* \"#utility.yul\":433:445   */\n      revert\n        /* \"#utility.yul\":457:574   */\n    tag_79:\n        /* \"#utility.yul\":566:567   */\n      0x00\n        /* \"#utility.yul\":563:564   */\n      0x00\n        /* \"#utility.yul\":556:568   */\n      revert\n        /* \"#utility.yul\":580:682   */\n    tag_80:\n        /* \"#utility.yul\":621:627   */\n      0x00\n        /* \"#utility.yul\":672:674   */\n      0x1f\n        /* \"#utility.yul\":668:675   */\n      not\n        /* \"#utility.yul\":663:665   */\n      0x1f\n        /* \"#utility.yul\":656:661   */\n      dup4\n        /* \"#utility.yul\":652:666   */\n      add\n        /* \"#utility.yul\":648:676   */\n      and\n        /* \"#utility.yul\":638:676   */\n      swap1\n      pop\n        /* \"#utility.yul\":580:682   */\n      swap2\n      swap1\n      pop\n      jump\t// out\n        /* \"#utility.yul\":688:868   */\n    tag_81:\n        /* \"#utility.yul\":736:813   */\n      0x4e487b7100000000000000000000000000000000000000000000000000000000\n        /* \"#utility.yul\":733:734   */\n      0x00\n        /* \"#utility.yul\":726:814   */\n      mstore\n        /* \"#utility.yul\":833:837   */\n      0x41\n        /* \"#utility.yul\":830:831   */\n      0x04\n        /* \"#utility.yul\":823:838   */\n      mstore\n        /* \"#utility.yul\":857:861   */\n      0x24\n        /* \"#utility.yul\":854:855   */\n      0x00\n        /* \"#utility.yul\":847:862   */\n      revert\n        /* \"#utility.yul\":874:1155   */\n    tag_82:\n        /* \"#utility.yul\":957:984   */\n      tag_129\n        /* \"#utility.yul\":979:983   */\n      dup3\n        /* \"#utility.yul\":957:984   */\n      tag_80\n      jump\t// in\n    tag_129:\n        /* \"#utility.yul\":949:955   */\n      dup2\n        /* \"#utility.yul\":945:985   */\n      add\n        /* \"#utility.yul\":1087:1093   */\n      dup2\n        /* \"#utility.yul\":1075:1085   */\n      dup2\n        /* \"#utility.yul\":1072:1094   */\n      lt\n        /* \"#utility.yul\":1051:1069   */\n      0xffffffffffffffff\n        /* \"#utility.yul\":1039:1049   */\n      dup3\n        /* \"#utility.yul\":1036:1070   */\n      gt\n        /* \"#utility.yul\":1033:1095   */\n      or\n        /* \"#utility.yul\":1030:1118   */\n      iszero\n      tag_130\n      jumpi\n        /* \"#utility.yul\":1098:1116   */\n      tag_131\n      tag_81\n      jump\t// in\n    tag_131:\n        /* \"#utility.yul\":1030:1118   */\n    tag_130:\n        /* \"#utility.yul\":1138:1148   */\n      dup1\n        /* \"#utility.yul\":1134:1136   */\n      0x40\n        /* \"#utility.yul\":1127:1149   */\n      mstore\n        /* \"#utility.yul\":917:1155   */\n      pop\n        /* \"#utility.yul\":874:1155   */\n      pop\n      pop\n      jump\t// out\n        /* \"#utility.yul\":1161:1290   */\n    tag_83:\n        /* \"#utility.yul\":1195:1201   */\n      0x00\n        /* \"#utility.yul\":1222:1242   */\n      tag_133\n      tag_75\n      jump\t// in\n    tag_133:\n        /* \"#utility.yul\":1212:1242   */\n      swap1\n      pop\n        /* \"#utility.yul\":1251:1284   */\n      tag_134\n        /* \"#utility.yul\":1279:1283   */\n      dup3\n        /* \"#utility.yul\":1271:1277   */\n      dup3\n        /* \"#utility.yul\":1251:1284   */\n      tag_82\n      jump\t// in\n    tag_134:\n        /* \"#utility.yul\":1161:1290   */\n      swap2\n      swap1\n      pop\n      jump\t// out\n        /* \"#utility.yul\":1296:1604   */\n    tag_84:\n        /* \"#utility.yul\":1358:1362   */\n      0x00\n        /* \"#utility.yul\":1448:1466   */\n      0xffffffffffffffff\n        /* \"#utility.yul\":1440:1446   */\n      dup3\n        /* \"#utility.yul\":1437:1467   */\n      gt\n        /* \"#utility.yul\":1434:1490   */\n      iszero\n      tag_136\n      jumpi\n        /* \"#utility.yul\":1470:1488   */\n      tag_137\n      tag_81\n      jump\t// in\n    tag_137:\n        /* \"#utility.yul\":1434:1490   */\n    tag_136:\n        /* \"#utility.yul\":1508:1537   */\n      tag_138\n        /* \"#utility.yul\":1530:1536   */\n      dup3\n        /* \"#utility.yul\":1508:1537   */\n      tag_80\n      jump\t// in\n    tag_138:\n        /* \"#utility.yul\":1500:1537   */\n      swap1\n      pop\n        /* \"#utility.yul\":1592:1596   */\n      0x20\n        /* \"#utility.yul\":1586:1590   */\n      dup2\n        /* \"#utility.yul\":1582:1597   */\n      add\n        /* \"#utility.yul\":1574:1597   */\n      swap1\n      pop\n        /* \"#utility.yul\":1296:1604   */\n      swap2\n      swap1\n      pop\n      jump\t// out\n        /* \"#utility.yul\":1610:1758   */\n    tag_85:\n        /* \"#utility.yul\":1708:1714   */\n      dup3\n        /* \"#utility.yul\":1703:1706   */\n      dup2\n        /* \"#utility.yul\":1698:1701   */\n      dup4\n        /* \"#utility.yul\":1685:1715   */\n      calldatacopy\n        /* \"#utility.yul\":1749:1750   */\n      0x00\n        /* \"#utility.yul\":1740:1746   */\n      dup4\n        /* \"#utility.yul\":1735:1738   */\n      dup4\n        /* \"#utility.yul\":1731:1747   */\n      add\n        /* \"#utility.yul\":1724:1751   */\n      mstore\n        /* \"#utility.yul\":1610:1758   */\n      pop\n      pop\n      pop\n      jump\t// out\n        /* \"#utility.yul\":1764:2189   */\n    tag_86:\n        /* \"#utility.yul\":1842:1847   */\n      0x00\n        /* \"#utility.yul\":1867:1933   */\n      tag_141\n        /* \"#utility.yul\":1883:1932   */\n      tag_142\n        /* \"#utility.yul\":1925:1931   */\n      dup5\n        /* \"#utility.yul\":1883:1932   */\n      tag_84\n      jump\t// in\n    tag_142:\n        /* \"#utility.yul\":1867:1933   */\n      tag_83\n      jump\t// in\n    tag_141:\n        /* \"#utility.yul\":1858:1933   */\n      swap1\n      pop\n        /* \"#utility.yul\":1956:1962   */\n      dup3\n        /* \"#utility.yul\":1949:1954   */\n      dup2\n        /* \"#utility.yul\":1942:1963   */\n      mstore\n        /* \"#utility.yul\":1994:1998   */\n      0x20\n        /* \"#utility.yul\":1987:1992   */\n      dup2\n        /* \"#utility.yul\":1983:1999   */\n      add\n        /* \"#utility.yul\":2032:2035   */\n      dup5\n        /* \"#utility.yul\":2023:2029   */\n      dup5\n        /* \"#utility.yul\":2018:2021   */\n      dup5\n        /* \"#utility.yul\":2014:2030   */\n      add\n        /* \"#utility.yul\":2011:2036   */\n      gt\n        /* \"#utility.yul\":2008:2120   */\n      iszero\n      tag_143\n      jumpi\n        /* \"#utility.yul\":2039:2118   */\n      tag_144\n      tag_79\n      jump\t// in\n    tag_144:\n        /* \"#utility.yul\":2008:2120   */\n    tag_143:\n        /* \"#utility.yul\":2129:2183   */\n      tag_145\n        /* \"#utility.yul\":2176:2182   */\n      dup5\n        /* \"#utility.yul\":2171:2174   */\n      dup3\n        /* \"#utility.yul\":2166:2169   */\n      dup6\n        /* \"#utility.yul\":2129:2183   */\n      tag_85\n      jump\t// in\n    tag_145:\n        /* \"#utility.yul\":1848:2189   */\n      pop\n        /* \"#utility.yul\":1764:2189   */\n      swap4\n      swap3\n      pop\n      pop\n      pop\n      jump\t// out\n        /* \"#utility.yul\":2209:2549   */\n    tag_87:\n        /* \"#utility.yul\":2265:2270   */\n      0x00\n        /* \"#utility.yul\":2314:2317   */\n      dup3\n        /* \"#utility.yul\":2307:2311   */\n      0x1f\n        /* \"#utility.yul\":2299:2305   */\n      dup4\n        /* \"#utility.yul\":2295:2312   */\n      add\n        /* \"#utility.yul\":2291:2318   */\n      slt\n        /* \"#utility.yul\":2281:2403   */\n      tag_147\n      jumpi\n        /* \"#utility.yul\":2322:2401   */\n      tag_148\n      tag_78\n      jump\t// in\n    tag_148:\n        /* \"#utility.yul\":2281:2403   */\n    tag_147:\n        /* \"#utility.yul\":2439:2445   */\n      dup2\n        /* \"#utility.yul\":2426:2446   */\n      calldataload\n        /* \"#utility.yul\":2464:2543   */\n      tag_149\n        /* \"#utility.yul\":2539:2542   */\n      dup5\n        /* \"#utility.yul\":2531:2537   */\n      dup3\n        /* \"#utility.yul\":2524:2528   */\n      0x20\n        /* \"#utility.yul\":2516:2522   */\n      dup7\n        /* \"#utility.yul\":2512:2529   */\n      add\n        /* \"#utility.yul\":2464:2543   */\n      tag_86\n      jump\t// in\n    tag_149:\n        /* \"#utility.yul\":2455:2543   */\n      swap2\n      pop\n        /* \"#utility.yul\":2271:2549   */\n      pop\n        /* \"#utility.yul\":2209:2549   */\n      swap3\n      swap2\n      pop\n      pop\n      jump\t// out\n        /* \"#utility.yul\":2555:2632   */\n    tag_88:\n        /* \"#utility.yul\":2592:2599   */\n      0x00\n        /* \"#utility.yul\":2621:2626   */\n      dup2\n        /* \"#utility.yul\":2610:2626   */\n      swap1\n      pop\n        /* \"#utility.yul\":2555:2632   */\n      swap2\n      swap1\n      pop\n      jump\t// out\n        /* \"#utility.yul\":2638:2760   */\n    tag_89:\n        /* \"#utility.yul\":2711:2735   */\n      tag_152\n        /* \"#utility.yul\":2729:2734   */\n      dup2\n        /* \"#utility.yul\":2711:2735   */\n      tag_88\n      jump\t// in\n    tag_152:\n        /* \"#utility.yul\":2704:2709   */\n      dup2\n        /* \"#utility.yul\":2701:2736   */\n      eq\n        /* \"#utility.yul\":2691:2754   */\n      tag_153\n      jumpi\n        /* \"#utility.yul\":2750:2751   */\n      0x00\n        /* \"#utility.yul\":2747:2748   */\n      0x00\n        /* \"#utility.yul\":2740:2752   */\n      revert\n        /* \"#utility.yul\":2691:2754   */\n    tag_153:\n        /* \"#utility.yul\":2638:2760   */\n      pop\n      jump\t// out\n        /* \"#utility.yul\":2766:2905   */\n    tag_90:\n        /* \"#utility.yul\":2812:2817   */\n      0x00\n        /* \"#utility.yul\":2850:2856   */\n      dup2\n        /* \"#utility.yul\":2837:2857   */\n      calldataload\n        /* \"#utility.yul\":2828:2857   */\n      swap1\n      pop\n        /* \"#utility.yul\":2866:2899   */\n      tag_155\n        /* \"#utility.yul\":2893:2898   */\n      dup2\n        /* \"#utility.yul\":2866:2899   */\n      tag_89\n      jump\t// in\n    tag_155:\n        /* \"#utility.yul\":2766:2905   */\n      swap3\n      swap2\n      pop\n      pop\n      jump\t// out\n        /* \"#utility.yul\":2911:4216   */\n    tag_10:\n        /* \"#utility.yul\":3027:3033   */\n      0x00\n        /* \"#utility.yul\":3035:3041   */\n      0x00\n        /* \"#utility.yul\":3043:3049   */\n      0x00\n        /* \"#utility.yul\":3051:3057   */\n      0x00\n        /* \"#utility.yul\":3100:3103   */\n      0x80\n        /* \"#utility.yul\":3088:3097   */\n      dup6\n        /* \"#utility.yul\":3079:3086   */\n      dup8\n        /* \"#utility.yul\":3075:3098   */\n      sub\n        /* \"#utility.yul\":3071:3104   */\n      slt\n        /* \"#utility.yul\":3068:3188   */\n      iszero\n      tag_157\n      jumpi\n        /* \"#utility.yul\":3107:3186   */\n      tag_158\n      tag_76\n      jump\t// in\n    tag_158:\n        /* \"#utility.yul\":3068:3188   */\n    tag_157:\n        /* \"#utility.yul\":3255:3256   */\n      0x00\n        /* \"#utility.yul\":3244:3253   */\n      dup6\n        /* \"#utility.yul\":3240:3257   */\n      add\n        /* \"#utility.yul\":3227:3258   */\n      calldataload\n        /* \"#utility.yul\":3285:3303   */\n      0xffffffffffffffff\n        /* \"#utility.yul\":3277:3283   */\n      dup2\n        /* \"#utility.yul\":3274:3304   */\n      gt\n        /* \"#utility.yul\":3271:3388   */\n      iszero\n      tag_159\n      jumpi\n        /* \"#utility.yul\":3307:3386   */\n      tag_160\n      tag_77\n      jump\t// in\n    tag_160:\n        /* \"#utility.yul\":3271:3388   */\n    tag_159:\n        /* \"#utility.yul\":3412:3475   */\n      tag_161\n        /* \"#utility.yul\":3467:3474   */\n      dup8\n        /* \"#utility.yul\":3458:3464   */\n      dup3\n        /* \"#utility.yul\":3447:3456   */\n      dup9\n        /* \"#utility.yul\":3443:3465   */\n      add\n        /* \"#utility.yul\":3412:3475   */\n      tag_87\n      jump\t// in\n    tag_161:\n        /* \"#utility.yul\":3402:3475   */\n      swap5\n      pop\n        /* \"#utility.yul\":3198:3485   */\n      pop\n        /* \"#utility.yul\":3552:3554   */\n      0x20\n        /* \"#utility.yul\":3541:3550   */\n      dup6\n        /* \"#utility.yul\":3537:3555   */\n      add\n        /* \"#utility.yul\":3524:3556   */\n      calldataload\n        /* \"#utility.yul\":3583:3601   */\n      0xffffffffffffffff\n        /* \"#utility.yul\":3575:3581   */\n      dup2\n        /* \"#utility.yul\":3572:3602   */\n      gt\n        /* \"#utility.yul\":3569:3686   */\n      iszero\n      tag_162\n      jumpi\n        /* \"#utility.yul\":3605:3684   */\n      tag_163\n      tag_77\n      jump\t// in\n    tag_163:\n        /* \"#utility.yul\":3569:3686   */\n    tag_162:\n        /* \"#utility.yul\":3710:3773   */\n      tag_164\n        /* \"#utility.yul\":3765:3772   */\n      dup8\n        /* \"#utility.yul\":3756:3762   */\n      dup3\n        /* \"#utility.yul\":3745:3754   */\n      dup9\n        /* \"#utility.yul\":3741:3763   */\n      add\n        /* \"#utility.yul\":3710:3773   */\n      tag_87\n      jump\t// in\n    tag_164:\n        /* \"#utility.yul\":3700:3773   */\n      swap4\n      pop\n        /* \"#utility.yul\":3495:3783   */\n      pop\n        /* \"#utility.yul\":3850:3852   */\n      0x40\n        /* \"#utility.yul\":3839:3848   */\n      dup6\n        /* \"#utility.yul\":3835:3853   */\n      add\n        /* \"#utility.yul\":3822:3854   */\n      calldataload\n        /* \"#utility.yul\":3881:3899   */\n      0xffffffffffffffff\n        /* \"#utility.yul\":3873:3879   */\n      dup2\n        /* \"#utility.yul\":3870:3900   */\n      gt\n        /* \"#utility.yul\":3867:3984   */\n      iszero\n      tag_165\n      jumpi\n        /* \"#utility.yul\":3903:3982   */\n      tag_166\n      tag_77\n      jump\t// in\n    tag_166:\n        /* \"#utility.yul\":3867:3984   */\n    tag_165:\n        /* \"#utility.yul\":4008:4071   */\n      tag_167\n        /* \"#utility.yul\":4063:4070   */\n      dup8\n        /* \"#utility.yul\":4054:4060   */\n      dup3\n        /* \"#utility.yul\":4043:4052   */\n      dup9\n        /* \"#utility.yul\":4039:4061   */\n      add\n        /* \"#utility.yul\":4008:4071   */\n      tag_87\n      jump\t// in\n    tag_167:\n        /* \"#utility.yul\":3998:4071   */\n      swap3\n      pop\n        /* \"#utility.yul\":3793:4081   */\n      pop\n        /* \"#utility.yul\":4120:4122   */\n      0x60\n        /* \"#utility.yul\":4146:4199   */\n      tag_168\n        /* \"#utility.yul\":4191:4198   */\n      dup8\n        /* \"#utility.yul\":4182:4188   */\n      dup3\n        /* \"#utility.yul\":4171:4180   */\n      dup9\n        /* \"#utility.yul\":4167:4189   */\n      add\n        /* \"#utility.yul\":4146:4199   */\n      tag_90\n      jump\t// in\n    tag_168:\n        /* \"#utility.yul\":4136:4199   */\n      swap2\n      pop\n        /* \"#utility.yul\":4091:4209   */\n      pop\n        /* \"#utility.yul\":2911:4216   */\n      swap3\n      swap6\n      swap2\n      swap5\n      pop\n      swap3\n      pop\n      jump\t// out\n        /* \"#utility.yul\":4222:4340   */\n    tag_91:\n        /* \"#utility.yul\":4309:4333   */\n      tag_170\n        /* \"#utility.yul\":4327:4332   */\n      dup2\n        /* \"#utility.yul\":4309:4333   */\n      tag_88\n      jump\t// in\n    tag_170:\n        /* \"#utility.yul\":4304:4307   */\n      dup3\n        /* \"#utility.yul\":4297:4334   */\n      mstore\n        /* \"#utility.yul\":4222:4340   */\n      pop\n      pop\n      jump\t// out\n        /* \"#utility.yul\":4346:4568   */\n    tag_15:\n        /* \"#utility.yul\":4439:4443   */\n      0x00\n        /* \"#utility.yul\":4477:4479   */\n      0x20\n        /* \"#utility.yul\":4466:4475   */\n      dup3\n        /* \"#utility.yul\":4462:4480   */\n      add\n        /* \"#utility.yul\":4454:4480   */\n      swap1\n      pop\n        /* \"#utility.yul\":4490:4561   */\n      tag_172\n        /* \"#utility.yul\":4558:4559   */\n      0x00\n        /* \"#utility.yul\":4547:4556   */\n      dup4\n        /* \"#utility.yul\":4543:4560   */\n      add\n        /* \"#utility.yul\":4534:4540   */\n      dup5\n        /* \"#utility.yul\":4490:4561   */\n      tag_91\n      jump\t// in\n    tag_172:\n        /* \"#utility.yul\":4346:4568   */\n      swap3\n      swap2\n      pop\n      pop\n      jump\t// out\n        /* \"#utility.yul\":4574:4903   */\n    tag_18:\n        /* \"#utility.yul\":4633:4639   */\n      0x00\n        /* \"#utility.yul\":4682:4684   */\n      0x20\n        /* \"#utility.yul\":4670:4679   */\n      dup3\n        /* \"#utility.yul\":4661:4668   */\n      dup5\n        /* \"#utility.yul\":4657:4680   */\n      sub\n        /* \"#utility.yul\":4653:4685   */\n      slt\n        /* \"#utility.yul\":4650:4769   */\n      iszero\n      tag_174\n      jumpi\n        /* \"#utility.yul\":4688:4767   */\n      tag_175\n      tag_76\n      jump\t// in\n    tag_175:\n        /* \"#utility.yul\":4650:4769   */\n    tag_174:\n        /* \"#utility.yul\":4808:4809   */\n      0x00\n        /* \"#utility.yul\":4833:4886   */\n      tag_176\n        /* \"#utility.yul\":4878:4885   */\n      dup5\n        /* \"#utility.yul\":4869:4875   */\n      dup3\n        /* \"#utility.yul\":4858:4867   */\n      dup6\n        /* \"#utility.yul\":4854:4876   */\n      add\n        /* \"#utility.yul\":4833:4886   */\n      tag_90\n      jump\t// in\n    tag_176:\n        /* \"#utility.yul\":4823:4886   */\n      swap2\n      pop\n        /* \"#utility.yul\":4779:4896   */\n      pop\n        /* \"#utility.yul\":4574:4903   */\n      swap3\n      swap2\n      pop\n      pop\n      jump\t// out\n        /* \"#utility.yul\":4909:5008   */\n    tag_92:\n        /* \"#utility.yul\":4961:4967   */\n      0x00\n        /* \"#utility.yul\":4995:5000   */\n      dup2\n        /* \"#utility.yul\":4989:5001   */\n      mload\n        /* \"#utility.yul\":4979:5001   */\n      swap1\n      pop\n        /* \"#utility.yul\":4909:5008   */\n      swap2\n      swap1\n      pop\n      jump\t// out\n        /* \"#utility.yul\":5014:5183   */\n    tag_93:\n        /* \"#utility.yul\":5098:5109   */\n      0x00\n        /* \"#utility.yul\":5132:5138   */\n      dup3\n        /* \"#utility.yul\":5127:5130   */\n      dup3\n        /* \"#utility.yul\":5120:5139   */\n      mstore\n        /* \"#utility.yul\":5172:5176   */\n      0x20\n        /* \"#utility.yul\":5167:5170   */\n      dup3\n        /* \"#utility.yul\":5163:5177   */\n      add\n        /* \"#utility.yul\":5148:5177   */\n      swap1\n      pop\n        /* \"#utility.yul\":5014:5183   */\n      swap3\n      swap2\n      pop\n      pop\n      jump\t// out\n        /* \"#utility.yul\":5189:5328   */\n    tag_94:\n        /* \"#utility.yul\":5278:5284   */\n      dup3\n        /* \"#utility.yul\":5273:5276   */\n      dup2\n        /* \"#utility.yul\":5268:5271   */\n      dup4\n        /* \"#utility.yul\":5262:5285   */\n      mcopy\n        /* \"#utility.yul\":5319:5320   */\n      0x00\n        /* \"#utility.yul\":5310:5316   */\n      dup4\n        /* \"#utility.yul\":5305:5308   */\n      dup4\n        /* \"#utility.yul\":5301:5317   */\n      add\n        /* \"#utility.yul\":5294:5321   */\n      mstore\n        /* \"#utility.yul\":5189:5328   */\n      pop\n      pop\n      pop\n      jump\t// out\n        /* \"#utility.yul\":5334:5711   */\n    tag_95:\n        /* \"#utility.yul\":5422:5425   */\n      0x00\n        /* \"#utility.yul\":5450:5489   */\n      tag_181\n        /* \"#utility.yul\":5483:5488   */\n      dup3\n        /* \"#utility.yul\":5450:5489   */\n      tag_92\n      jump\t// in\n    tag_181:\n        /* \"#utility.yul\":5505:5576   */\n      tag_182\n        /* \"#utility.yul\":5569:5575   */\n      dup2\n        /* \"#utility.yul\":5564:5567   */\n      dup6\n        /* \"#utility.yul\":5505:5576   */\n      tag_93\n      jump\t// in\n    tag_182:\n        /* \"#utility.yul\":5498:5576   */\n      swap4\n      pop\n        /* \"#utility.yul\":5585:5650   */\n      tag_183\n        /* \"#utility.yul\":5643:5649   */\n      dup2\n        /* \"#utility.yul\":5638:5641   */\n      dup6\n        /* \"#utility.yul\":5631:5635   */\n      0x20\n        /* \"#utility.yul\":5624:5629   */\n      dup7\n        /* \"#utility.yul\":5620:5636   */\n      add\n        /* \"#utility.yul\":5585:5650   */\n      tag_94\n      jump\t// in\n    tag_183:\n        /* \"#utility.yul\":5675:5704   */\n      tag_184\n        /* \"#utility.yul\":5697:5703   */\n      dup2\n        /* \"#utility.yul\":5675:5704   */\n      tag_80\n      jump\t// in\n    tag_184:\n        /* \"#utility.yul\":5670:5673   */\n      dup5\n        /* \"#utility.yul\":5666:5705   */\n      add\n        /* \"#utility.yul\":5659:5705   */\n      swap2\n      pop\n        /* \"#utility.yul\":5426:5711   */\n      pop\n        /* \"#utility.yul\":5334:5711   */\n      swap3\n      swap2\n      pop\n      pop\n      jump\t// out\n        /* \"#utility.yul\":5717:5843   */\n    tag_96:\n        /* \"#utility.yul\":5754:5761   */\n      0x00\n        /* \"#utility.yul\":5794:5836   */\n      0xffffffffffffffffffffffffffffffffffffffff\n        /* \"#utility.yul\":5787:5792   */\n      dup3\n        /* \"#utility.yul\":5783:5837   */\n      and\n        /* \"#utility.yul\":5772:5837   */\n      swap1\n      pop\n        /* \"#utility.yul\":5717:5843   */\n      swap2\n      swap1\n      pop\n      jump\t// out\n        /* \"#utility.yul\":5849:5945   */\n    tag_97:\n        /* \"#utility.yul\":5886:5893   */\n      0x00\n        /* \"#utility.yul\":5915:5939   */\n      tag_187\n        /* \"#utility.yul\":5933:5938   */\n      dup3\n        /* \"#utility.yul\":5915:5939   */\n      tag_96\n      jump\t// in\n    tag_187:\n        /* \"#utility.yul\":5904:5939   */\n      swap1\n      pop\n        /* \"#utility.yul\":5849:5945   */\n      swap2\n      swap1\n      pop\n      jump\t// out\n        /* \"#utility.yul\":5951:6069   */\n    tag_98:\n        /* \"#utility.yul\":6038:6062   */\n      tag_189\n        /* \"#utility.yul\":6056:6061   */\n      dup2\n        /* \"#utility.yul\":6038:6062   */\n      tag_97\n      jump\t// in\n    tag_189:\n        /* \"#utility.yul\":6033:6036   */\n      dup3\n        /* \"#utility.yul\":6026:6063   */\n      mstore\n        /* \"#utility.yul\":5951:6069   */\n      pop\n      pop\n      jump\t// out\n        /* \"#utility.yul\":6075:6921   */\n    tag_21:\n        /* \"#utility.yul\":6320:6324   */\n      0x00\n        /* \"#utility.yul\":6358:6361   */\n      0xa0\n        /* \"#utility.yul\":6347:6356   */\n      dup3\n        /* \"#utility.yul\":6343:6362   */\n      add\n        /* \"#utility.yul\":6335:6362   */\n      swap1\n      pop\n        /* \"#utility.yul\":6408:6417   */\n      dup2\n        /* \"#utility.yul\":6402:6406   */\n      dup2\n        /* \"#utility.yul\":6398:6418   */\n      sub\n        /* \"#utility.yul\":6394:6395   */\n      0x00\n        /* \"#utility.yul\":6383:6392   */\n      dup4\n        /* \"#utility.yul\":6379:6396   */\n      add\n        /* \"#utility.yul\":6372:6419   */\n      mstore\n        /* \"#utility.yul\":6436:6514   */\n      tag_191\n        /* \"#utility.yul\":6509:6513   */\n      dup2\n        /* \"#utility.yul\":6500:6506   */\n      dup9\n        /* \"#utility.yul\":6436:6514   */\n      tag_95\n      jump\t// in\n    tag_191:\n        /* \"#utility.yul\":6428:6514   */\n      swap1\n      pop\n        /* \"#utility.yul\":6524:6596   */\n      tag_192\n        /* \"#utility.yul\":6592:6594   */\n      0x20\n        /* \"#utility.yul\":6581:6590   */\n      dup4\n        /* \"#utility.yul\":6577:6595   */\n      add\n        /* \"#utility.yul\":6568:6574   */\n      dup8\n        /* \"#utility.yul\":6524:6596   */\n      tag_98\n      jump\t// in\n    tag_192:\n        /* \"#utility.yul\":6643:6652   */\n      dup2\n        /* \"#utility.yul\":6637:6641   */\n      dup2\n        /* \"#utility.yul\":6633:6653   */\n      sub\n        /* \"#utility.yul\":6628:6630   */\n      0x40\n        /* \"#utility.yul\":6617:6626   */\n      dup4\n        /* \"#utility.yul\":6613:6631   */\n      add\n        /* \"#utility.yul\":6606:6654   */\n      mstore\n        /* \"#utility.yul\":6671:6749   */\n      tag_193\n        /* \"#utility.yul\":6744:6748   */\n      dup2\n        /* \"#utility.yul\":6735:6741   */\n      dup7\n        /* \"#utility.yul\":6671:6749   */\n      tag_95\n      jump\t// in\n    tag_193:\n        /* \"#utility.yul\":6663:6749   */\n      swap1\n      pop\n        /* \"#utility.yul\":6759:6831   */\n      tag_194\n        /* \"#utility.yul\":6827:6829   */\n      0x60\n        /* \"#utility.yul\":6816:6825   */\n      dup4\n        /* \"#utility.yul\":6812:6830   */\n      add\n        /* \"#utility.yul\":6803:6809   */\n      dup6\n        /* \"#utility.yul\":6759:6831   */\n      tag_91\n      jump\t// in\n    tag_194:\n        /* \"#utility.yul\":6841:6914   */\n      tag_195\n        /* \"#utility.yul\":6909:6912   */\n      0x80\n        /* \"#utility.yul\":6898:6907   */\n      dup4\n        /* \"#utility.yul\":6894:6913   */\n      add\n        /* \"#utility.yul\":6885:6891   */\n      dup5\n        /* \"#utility.yul\":6841:6914   */\n      tag_91\n      jump\t// in\n    tag_195:\n        /* \"#utility.yul\":6075:6921   */\n      swap7\n      swap6\n      pop\n      pop\n      pop\n      pop\n      pop\n      pop\n      jump\t// out\n        /* \"#utility.yul\":6927:7149   */\n    tag_25:\n        /* \"#utility.yul\":7020:7024   */\n      0x00\n        /* \"#utility.yul\":7058:7060   */\n      0x20\n        /* \"#utility.yul\":7047:7056   */\n      dup3\n        /* \"#utility.yul\":7043:7061   */\n      add\n        /* \"#utility.yul\":7035:7061   */\n      swap1\n      pop\n        /* \"#utility.yul\":7071:7142   */\n      tag_197\n        /* \"#utility.yul\":7139:7140   */\n      0x00\n        /* \"#utility.yul\":7128:7137   */\n      dup4\n        /* \"#utility.yul\":7124:7141   */\n      add\n        /* \"#utility.yul\":7115:7121   */\n      dup5\n        /* \"#utility.yul\":7071:7142   */\n      tag_98\n      jump\t// in\n    tag_197:\n        /* \"#utility.yul\":6927:7149   */\n      swap3\n      swap2\n      pop\n      pop\n      jump\t// out\n        /* \"#utility.yul\":7155:8203   */\n    tag_30:\n        /* \"#utility.yul\":7448:7452   */\n      0x00\n        /* \"#utility.yul\":7486:7489   */\n      0xc0\n        /* \"#utility.yul\":7475:7484   */\n      dup3\n        /* \"#utility.yul\":7471:7490   */\n      add\n        /* \"#utility.yul\":7463:7490   */\n      swap1\n      pop\n        /* \"#utility.yul\":7500:7571   */\n      tag_199\n        /* \"#utility.yul\":7568:7569   */\n      0x00\n        /* \"#utility.yul\":7557:7566   */\n      dup4\n        /* \"#utility.yul\":7553:7570   */\n      add\n        /* \"#utility.yul\":7544:7550   */\n      dup10\n        /* \"#utility.yul\":7500:7571   */\n      tag_98\n      jump\t// in\n    tag_199:\n        /* \"#utility.yul\":7618:7627   */\n      dup2\n        /* \"#utility.yul\":7612:7616   */\n      dup2\n        /* \"#utility.yul\":7608:7628   */\n      sub\n        /* \"#utility.yul\":7603:7605   */\n      0x20\n        /* \"#utility.yul\":7592:7601   */\n      dup4\n        /* \"#utility.yul\":7588:7606   */\n      add\n        /* \"#utility.yul\":7581:7629   */\n      mstore\n        /* \"#utility.yul\":7646:7724   */\n      tag_200\n        /* \"#utility.yul\":7719:7723   */\n      dup2\n        /* \"#utility.yul\":7710:7716   */\n      dup9\n        /* \"#utility.yul\":7646:7724   */\n      tag_95\n      jump\t// in\n    tag_200:\n        /* \"#utility.yul\":7638:7724   */\n      swap1\n      pop\n        /* \"#utility.yul\":7771:7780   */\n      dup2\n        /* \"#utility.yul\":7765:7769   */\n      dup2\n        /* \"#utility.yul\":7761:7781   */\n      sub\n        /* \"#utility.yul\":7756:7758   */\n      0x40\n        /* \"#utility.yul\":7745:7754   */\n      dup4\n        /* \"#utility.yul\":7741:7759   */\n      add\n        /* \"#utility.yul\":7734:7782   */\n      mstore\n        /* \"#utility.yul\":7799:7877   */\n      tag_201\n        /* \"#utility.yul\":7872:7876   */\n      dup2\n        /* \"#utility.yul\":7863:7869   */\n      dup8\n        /* \"#utility.yul\":7799:7877   */\n      tag_95\n      jump\t// in\n    tag_201:\n        /* \"#utility.yul\":7791:7877   */\n      swap1\n      pop\n        /* \"#utility.yul\":7924:7933   */\n      dup2\n        /* \"#utility.yul\":7918:7922   */\n      dup2\n        /* \"#utility.yul\":7914:7934   */\n      sub\n        /* \"#utility.yul\":7909:7911   */\n      0x60\n        /* \"#utility.yul\":7898:7907   */\n      dup4\n        /* \"#utility.yul\":7894:7912   */\n      add\n        /* \"#utility.yul\":7887:7935   */\n      mstore\n        /* \"#utility.yul\":7952:8030   */\n      tag_202\n        /* \"#utility.yul\":8025:8029   */\n      dup2\n        /* \"#utility.yul\":8016:8022   */\n      dup7\n        /* \"#utility.yul\":7952:8030   */\n      tag_95\n      jump\t// in\n    tag_202:\n        /* \"#utility.yul\":7944:8030   */\n      swap1\n      pop\n        /* \"#utility.yul\":8040:8113   */\n      tag_203\n        /* \"#utility.yul\":8108:8111   */\n      0x80\n        /* \"#utility.yul\":8097:8106   */\n      dup4\n        /* \"#utility.yul\":8093:8112   */\n      add\n        /* \"#utility.yul\":8084:8090   */\n      dup6\n        /* \"#utility.yul\":8040:8113   */\n      tag_91\n      jump\t// in\n    tag_203:\n        /* \"#utility.yul\":8123:8196   */\n      tag_204\n        /* \"#utility.yul\":8191:8194   */\n      0xa0\n        /* \"#utility.yul\":8180:8189   */\n      dup4\n        /* \"#utility.yul\":8176:8195   */\n      add\n        /* \"#utility.yul\":8167:8173   */\n      dup5\n        /* \"#utility.yul\":8123:8196   */\n      tag_91\n      jump\t// in\n    tag_204:\n        /* \"#utility.yul\":7155:8203   */\n      swap8\n      swap7\n      pop\n      pop\n      pop\n      pop\n      pop\n      pop\n      pop\n      jump\t// out\n        /* \"#utility.yul\":8209:8380   */\n    tag_99:\n        /* \"#utility.yul\":8349:8372   */\n      0x596f7520617265206e6f7420746865206f776e65720000000000000000000000\n        /* \"#utility.yul\":8345:8346   */\n      0x00\n        /* \"#utility.yul\":8337:8343   */\n      dup3\n        /* \"#utility.yul\":8333:8347   */\n      add\n        /* \"#utility.yul\":8326:8373   */\n      mstore\n        /* \"#utility.yul\":8209:8380   */\n      pop\n      jump\t// out\n        /* \"#utility.yul\":8386:8752   */\n    tag_100:\n        /* \"#utility.yul\":8528:8531   */\n      0x00\n        /* \"#utility.yul\":8549:8616   */\n      tag_207\n        /* \"#utility.yul\":8613:8615   */\n      0x15\n        /* \"#utility.yul\":8608:8611   */\n      dup4\n        /* \"#utility.yul\":8549:8616   */\n      tag_93\n      jump\t// in\n    tag_207:\n        /* \"#utility.yul\":8542:8616   */\n      swap2\n      pop\n        /* \"#utility.yul\":8625:8718   */\n      tag_208\n        /* \"#utility.yul\":8714:8717   */\n      dup3\n        /* \"#utility.yul\":8625:8718   */\n      tag_99\n      jump\t// in\n    tag_208:\n        /* \"#utility.yul\":8743:8745   */\n      0x20\n        /* \"#utility.yul\":8738:8741   */\n      dup3\n        /* \"#utility.yul\":8734:8746   */\n      add\n        /* \"#utility.yul\":8727:8746   */\n      swap1\n      pop\n        /* \"#utility.yul\":8386:8752   */\n      swap2\n      swap1\n      pop\n      jump\t// out\n        /* \"#utility.yul\":8758:9177   */\n    tag_34:\n        /* \"#utility.yul\":8924:8928   */\n      0x00\n        /* \"#utility.yul\":8962:8964   */\n      0x20\n        /* \"#utility.yul\":8951:8960   */\n      dup3\n        /* \"#utility.yul\":8947:8965   */\n      add\n        /* \"#utility.yul\":8939:8965   */\n      swap1\n      pop\n        /* \"#utility.yul\":9011:9020   */\n      dup2\n        /* \"#utility.yul\":9005:9009   */\n      dup2\n        /* \"#utility.yul\":9001:9021   */\n      sub\n        /* \"#utility.yul\":8997:8998   */\n      0x00\n        /* \"#utility.yul\":8986:8995   */\n      dup4\n        /* \"#utility.yul\":8982:8999   */\n      add\n        /* \"#utility.yul\":8975:9022   */\n      mstore\n        /* \"#utility.yul\":9039:9170   */\n      tag_210\n        /* \"#utility.yul\":9165:9169   */\n      dup2\n        /* \"#utility.yul\":9039:9170   */\n      tag_100\n      jump\t// in\n    tag_210:\n        /* \"#utility.yul\":9031:9170   */\n      swap1\n      pop\n        /* \"#utility.yul\":8758:9177   */\n      swap2\n      swap1\n      pop\n      jump\t// out\n        /* \"#utility.yul\":9183:9363   */\n    tag_101:\n        /* \"#utility.yul\":9231:9308   */\n      0x4e487b7100000000000000000000000000000000000000000000000000000000\n        /* \"#utility.yul\":9228:9229   */\n      0x00\n        /* \"#utility.yul\":9221:9309   */\n      mstore\n        /* \"#utility.yul\":9328:9332   */\n      0x11\n        /* \"#utility.yul\":9325:9326   */\n      0x04\n        /* \"#utility.yul\":9318:9333   */\n      mstore\n        /* \"#utility.yul\":9352:9356   */\n      0x24\n        /* \"#utility.yul\":9349:9350   */\n      0x00\n        /* \"#utility.yul\":9342:9357   */\n      revert\n        /* \"#utility.yul\":9369:9602   */\n    tag_37:\n        /* \"#utility.yul\":9408:9411   */\n      0x00\n        /* \"#utility.yul\":9431:9455   */\n      tag_213\n        /* \"#utility.yul\":9449:9454   */\n      dup3\n        /* \"#utility.yul\":9431:9455   */\n      tag_88\n      jump\t// in\n    tag_213:\n        /* \"#utility.yul\":9422:9455   */\n      swap2\n      pop\n        /* \"#utility.yul\":9477:9543   */\n      0xffffffffffffffffffffffffffffffffffffffffffffffffffffffffffffffff\n        /* \"#utility.yul\":9470:9475   */\n      dup3\n        /* \"#utility.yul\":9467:9544   */\n      sub\n        /* \"#utility.yul\":9464:9567   */\n      tag_214\n      jumpi\n        /* \"#utility.yul\":9547:9565   */\n      tag_215\n      tag_101\n      jump\t// in\n    tag_215:\n        /* \"#utility.yul\":9464:9567   */\n    tag_214:\n        /* \"#utility.yul\":9594:9595   */\n      0x01\n        /* \"#utility.yul\":9587:9592   */\n      dup3\n        /* \"#utility.yul\":9583:9596   */\n      add\n        /* \"#utility.yul\":9576:9596   */\n      swap1\n      pop\n        /* \"#utility.yul\":9369:9602   */\n      swap2\n      swap1\n      pop\n      jump\t// out\n        /* \"#utility.yul\":9608:9788   */\n    tag_102:\n        /* \"#utility.yul\":9656:9733   */\n      0x4e487b7100000000000000000000000000000000000000000000000000000000\n        /* \"#utility.yul\":9653:9654   */\n      0x00\n        /* \"#utility.yul\":9646:9734   */\n      mstore\n        /* \"#utility.yul\":9753:9757   */\n      0x22\n        /* \"#utility.yul\":9750:9751   */\n      0x04\n        /* \"#utility.yul\":9743:9758   */\n      mstore\n        /* \"#utility.yul\":9777:9781   */\n      0x24\n        /* \"#utility.yul\":9774:9775   */\n      0x00\n        /* \"#utility.yul\":9767:9782   */\n      revert\n        /* \"#utility.yul\":9794:10114   */\n    tag_50:\n        /* \"#utility.yul\":9838:9844   */\n      0x00\n        /* \"#utility.yul\":9875:9876   */\n      0x02\n        /* \"#utility.yul\":9869:9873   */\n      dup3\n        /* \"#utility.yul\":9865:9877   */\n      div\n        /* \"#utility.yul\":9855:9877   */\n      swap1\n      pop\n        /* \"#utility.yul\":9922:9923   */\n      0x01\n        /* \"#utility.yul\":9916:9920   */\n      dup3\n        /* \"#utility.yul\":9912:9924   */\n      and\n        /* \"#utility.yul\":9943:9961   */\n      dup1\n        /* \"#utility.yul\":9933:10014   */\n      tag_218\n      jumpi\n        /* \"#utility.yul\":9999:10003   */\n      0x7f\n        /* \"#utility.yul\":9991:9997   */\n      dup3\n        /* \"#utility.yul\":9987:10004   */\n      and\n        /* \"#utility.yul\":9977:10004   */\n      swap2\n      pop\n        /* \"#utility.yul\":9933:10014   */\n    tag_218:\n        /* \"#utility.yul\":10061:10063   */\n      0x20\n        /* \"#utility.yul\":10053:10059   */\n      dup3\n        /* \"#utility.yul\":10050:10064   */\n      lt\n        /* \"#utility.yul\":10030:10048   */\n      dup2\n        /* \"#utility.yul\":10027:10065   */\n      sub\n        /* \"#utility.yul\":10024:10108   */\n      tag_219\n      jumpi\n        /* \"#utility.yul\":10080:10098   */\n      tag_220\n      tag_102\n      jump\t// in\n    tag_220:\n        /* \"#utility.yul\":10024:10108   */\n    tag_219:\n        /* \"#utility.yul\":9845:10114   */\n      pop\n        /* \"#utility.yul\":9794:10114   */\n      swap2\n      swap1\n      pop\n      jump\t// out\n        /* \"#utility.yul\":10120:10261   */\n    tag_103:\n        /* \"#utility.yul\":10169:10173   */\n      0x00\n        /* \"#utility.yul\":10192:10195   */\n      dup2\n        /* \"#utility.yul\":10184:10195   */\n      swap1\n      pop\n        /* \"#utility.yul\":10215:10218   */\n      dup2\n        /* \"#utility.yul\":10212:10213   */\n      0x00\n        /* \"#utility.yul\":10205:10219   */\n      mstore\n        /* \"#utility.yul\":10249:10253   */\n      0x20\n        /* \"#utility.yul\":10246:10247   */\n      0x00\n        /* \"#utility.yul\":10236:10254   */\n      keccak256\n        /* \"#utility.yul\":10228:10254   */\n      swap1\n      pop\n        /* \"#utility.yul\":10120:10261   */\n      swap2\n      swap1\n      pop\n      jump\t// out\n        /* \"#utility.yul\":10267:10360   */\n    tag_104:\n        /* \"#utility.yul\":10304:10310   */\n      0x00\n        /* \"#utility.yul\":10351:10353   */\n      0x20\n        /* \"#utility.yul\":10346:10348   */\n      0x1f\n        /* \"#utility.yul\":10339:10344   */\n      dup4\n        /* \"#utility.yul\":10335:10349   */\n      add\n        /* \"#utility.yul\":10331:10354   */\n      div\n        /* \"#utility.yul\":10321:10354   */\n      swap1\n      pop\n        /* \"#utility.yul\":10267:10360   */\n      swap2\n      swap1\n      pop\n      jump\t// out\n        /* \"#utility.yul\":10366:10473   */\n    tag_105:\n        /* \"#utility.yul\":10410:10418   */\n      0x00\n        /* \"#utility.yul\":10460:10465   */\n      dup3\n        /* \"#utility.yul\":10454:10458   */\n      dup3\n        /* \"#utility.yul\":10450:10466   */\n      shl\n        /* \"#utility.yul\":10429:10466   */\n      swap1\n      pop\n        /* \"#utility.yul\":10366:10473   */\n      swap3\n      swap2\n      pop\n      pop\n      jump\t// out\n        /* \"#utility.yul\":10479:10872   */\n    tag_106:\n        /* \"#utility.yul\":10548:10554   */\n      0x00\n        /* \"#utility.yul\":10598:10599   */\n      0x08\n        /* \"#utility.yul\":10586:10596   */\n      dup4\n        /* \"#utility.yul\":10582:10600   */\n      mul\n        /* \"#utility.yul\":10621:10718   */\n      tag_225\n        /* \"#utility.yul\":10651:10717   */\n      0xffffffffffffffffffffffffffffffffffffffffffffffffffffffffffffffff\n        /* \"#utility.yul\":10640:10649   */\n      dup3\n        /* \"#utility.yul\":10621:10718   */\n      tag_105\n      jump\t// in\n    tag_225:\n        /* \"#utility.yul\":10739:10778   */\n      tag_226\n        /* \"#utility.yul\":10769:10777   */\n      dup7\n        /* \"#utility.yul\":10758:10767   */\n      dup4\n        /* \"#utility.yul\":10739:10778   */\n      tag_105\n      jump\t// in\n    tag_226:\n        /* \"#utility.yul\":10727:10778   */\n      swap6\n      pop\n        /* \"#utility.yul\":10811:10815   */\n      dup1\n        /* \"#utility.yul\":10807:10816   */\n      not\n        /* \"#utility.yul\":10800:10805   */\n      dup5\n        /* \"#utility.yul\":10796:10817   */\n      and\n        /* \"#utility.yul\":10787:10817   */\n      swap4\n      pop\n        /* \"#utility.yul\":10860:10864   */\n      dup1\n        /* \"#utility.yul\":10850:10858   */\n      dup7\n        /* \"#utility.yul\":10846:10865   */\n      and\n        /* \"#utility.yul\":10839:10844   */\n      dup5\n        /* \"#utility.yul\":10836:10866   */\n      or\n        /* \"#utility.yul\":10826:10866   */\n      swap3\n      pop\n        /* \"#utility.yul\":10555:10872   */\n      pop\n      pop\n        /* \"#utility.yul\":10479:10872   */\n      swap4\n      swap3\n      pop\n      pop\n      pop\n      jump\t// out\n        /* \"#utility.yul\":10878:10938   */\n    tag_107:\n        /* \"#utility.yul\":10906:10909   */\n      0x00\n        /* \"#utility.yul\":10927:10932   */\n      dup2\n        /* \"#utility.yul\":10920:10932   */\n      swap1\n      pop\n        /* \"#utility.yul\":10878:10938   */\n      swap2\n      swap1\n      pop\n      jump\t// out\n        /* \"#utility.yul\":10944:11086   */\n    tag_108:\n        /* \"#utility.yul\":10994:11003   */\n      0x00\n        /* \"#utility.yul\":11027:11080   */\n      tag_229\n        /* \"#utility.yul\":11045:11079   */\n      tag_230\n        /* \"#utility.yul\":11054:11078   */\n      tag_231\n        /* \"#utility.yul\":11072:11077   */\n      dup5\n        /* \"#utility.yul\":11054:11078   */\n      tag_88\n      jump\t// in\n    tag_231:\n        /* \"#utility.yul\":11045:11079   */\n      tag_107\n      jump\t// in\n    tag_230:\n        /* \"#utility.yul\":11027:11080   */\n      tag_88\n      jump\t// in\n    tag_229:\n        /* \"#utility.yul\":11014:11080   */\n      swap1\n      pop\n        /* \"#utility.yul\":10944:11086   */\n      swap2\n      swap1\n      pop\n      jump\t// out\n        /* \"#utility.yul\":11092:11167   */\n    tag_109:\n        /* \"#utility.yul\":11135:11138   */\n      0x00\n        /* \"#utility.yul\":11156:11161   */\n      dup2\n        /* \"#utility.yul\":11149:11161   */\n      swap1\n      pop\n        /* \"#utility.yul\":11092:11167   */\n      swap2\n      swap1\n      pop\n      jump\t// out\n        /* \"#utility.yul\":11173:11442   */\n    tag_110:\n        /* \"#utility.yul\":11283:11322   */\n      tag_234\n        /* \"#utility.yul\":11314:11321   */\n      dup4\n        /* \"#utility.yul\":11283:11322   */\n      tag_108\n      jump\t// in\n    tag_234:\n        /* \"#utility.yul\":11344:11435   */\n      tag_235\n        /* \"#utility.yul\":11393:11434   */\n      tag_236\n        /* \"#utility.yul\":11417:11433   */\n      dup3\n        /* \"#utility.yul\":11393:11434   */\n      tag_109\n      jump\t// in\n    tag_236:\n        /* \"#utility.yul\":11385:11391   */\n      dup5\n        /* \"#utility.yul\":11378:11382   */\n      dup5\n        /* \"#utility.yul\":11372:11383   */\n      sload\n        /* \"#utility.yul\":11344:11435   */\n      tag_106\n      jump\t// in\n    tag_235:\n        /* \"#utility.yul\":11338:11342   */\n      dup3\n        /* \"#utility.yul\":11331:11436   */\n      sstore\n        /* \"#utility.yul\":11249:11442   */\n      pop\n        /* \"#utility.yul\":11173:11442   */\n      pop\n      pop\n      pop\n      jump\t// out\n        /* \"#utility.yul\":11448:11521   */\n    tag_111:\n        /* \"#utility.yul\":11493:11496   */\n      0x00\n        /* \"#utility.yul\":11514:11515   */\n      0x00\n        /* \"#utility.yul\":11507:11515   */\n      swap1\n      pop\n        /* \"#utility.yul\":11448:11521   */\n      swap1\n      jump\t// out\n        /* \"#utility.yul\":11527:11716   */\n    tag_112:\n        /* \"#utility.yul\":11604:11636   */\n      tag_239\n      tag_111\n      jump\t// in\n    tag_239:\n        /* \"#utility.yul\":11645:11710   */\n      tag_240\n        /* \"#utility.yul\":11703:11709   */\n      dup2\n        /* \"#utility.yul\":11695:11701   */\n      dup5\n        /* \"#utility.yul\":11689:11693   */\n      dup5\n        /* \"#utility.yul\":11645:11710   */\n      tag_110\n      jump\t// in\n    tag_240:\n        /* \"#utility.yul\":11580:11716   */\n      pop\n        /* \"#utility.yul\":11527:11716   */\n      pop\n      pop\n      jump\t// out\n        /* \"#utility.yul\":11722:11908   */\n    tag_113:\n        /* \"#utility.yul\":11782:11902   */\n    tag_242:\n        /* \"#utility.yul\":11799:11802   */\n      dup2\n        /* \"#utility.yul\":11792:11797   */\n      dup2\n        /* \"#utility.yul\":11789:11803   */\n      lt\n        /* \"#utility.yul\":11782:11902   */\n      iszero\n      tag_244\n      jumpi\n        /* \"#utility.yul\":11853:11892   */\n      tag_245\n        /* \"#utility.yul\":11890:11891   */\n      0x00\n        /* \"#utility.yul\":11883:11888   */\n      dup3\n        /* \"#utility.yul\":11853:11892   */\n      tag_112\n      jump\t// in\n    tag_245:\n        /* \"#utility.yul\":11826:11827   */\n      0x01\n        /* \"#utility.yul\":11819:11824   */\n      dup2\n        /* \"#utility.yul\":11815:11828   */\n      add\n        /* \"#utility.yul\":11806:11828   */\n      swap1\n      pop\n        /* \"#utility.yul\":11782:11902   */\n      jump(tag_242)\n    tag_244:\n        /* \"#utility.yul\":11722:11908   */\n      pop\n      pop\n      jump\t// out\n        /* \"#utility.yul\":11914:12457   */\n    tag_114:\n        /* \"#utility.yul\":12015:12017   */\n      0x1f\n        /* \"#utility.yul\":12010:12013   */\n      dup3\n        /* \"#utility.yul\":12007:12018   */\n      gt\n        /* \"#utility.yul\":12004:12450   */\n      iszero\n      tag_247\n      jumpi\n        /* \"#utility.yul\":12049:12087   */\n      tag_248\n        /* \"#utility.yul\":12081:12086   */\n      dup2\n        /* \"#utility.yul\":12049:12087   */\n      tag_103\n      jump\t// in\n    tag_248:\n        /* \"#utility.yul\":12133:12162   */\n      tag_249\n        /* \"#utility.yul\":12151:12161   */\n      dup5\n        /* \"#utility.yul\":12133:12162   */\n      tag_104\n      jump\t// in\n    tag_249:\n        /* \"#utility.yul\":12123:12131   */\n      dup2\n        /* \"#utility.yul\":12119:12163   */\n      add\n        /* \"#utility.yul\":12316:12318   */\n      0x20\n        /* \"#utility.yul\":12304:12314   */\n      dup6\n        /* \"#utility.yul\":12301:12319   */\n      lt\n        /* \"#utility.yul\":12298:12347   */\n      iszero\n      tag_250\n      jumpi\n        /* \"#utility.yul\":12337:12345   */\n      dup2\n        /* \"#utility.yul\":12322:12345   */\n      swap1\n      pop\n        /* \"#utility.yul\":12298:12347   */\n    tag_250:\n        /* \"#utility.yul\":12360:12440   */\n      tag_251\n        /* \"#utility.yul\":12416:12438   */\n      tag_252\n        /* \"#utility.yul\":12434:12437   */\n      dup6\n        /* \"#utility.yul\":12416:12438   */\n      tag_104\n      jump\t// in\n    tag_252:\n        /* \"#utility.yul\":12406:12414   */\n      dup4\n        /* \"#utility.yul\":12402:12439   */\n      add\n        /* \"#utility.yul\":12389:12400   */\n      dup3\n        /* \"#utility.yul\":12360:12440   */\n      tag_113\n      jump\t// in\n    tag_251:\n        /* \"#utility.yul\":12019:12450   */\n      pop\n      pop\n        /* \"#utility.yul\":12004:12450   */\n    tag_247:\n        /* \"#utility.yul\":11914:12457   */\n      pop\n      pop\n      pop\n      jump\t// out\n        /* \"#utility.yul\":12463:12580   */\n    tag_115:\n        /* \"#utility.yul\":12517:12525   */\n      0x00\n        /* \"#utility.yul\":12567:12572   */\n      dup3\n        /* \"#utility.yul\":12561:12565   */\n      dup3\n        /* \"#utility.yul\":12557:12573   */\n      shr\n        /* \"#utility.yul\":12536:12573   */\n      swap1\n      pop\n        /* \"#utility.yul\":12463:12580   */\n      swap3\n      swap2\n      pop\n      pop\n      jump\t// out\n        /* \"#utility.yul\":12586:12755   */\n    tag_116:\n        /* \"#utility.yul\":12630:12636   */\n      0x00\n        /* \"#utility.yul\":12663:12714   */\n      tag_255\n        /* \"#utility.yul\":12711:12712   */\n      0x00\n        /* \"#utility.yul\":12707:12713   */\n      not\n        /* \"#utility.yul\":12699:12704   */\n      dup5\n        /* \"#utility.yul\":12696:12697   */\n      0x08\n        /* \"#utility.yul\":12692:12705   */\n      mul\n        /* \"#utility.yul\":12663:12714   */\n      tag_115\n      jump\t// in\n    tag_255:\n        /* \"#utility.yul\":12659:12715   */\n      not\n        /* \"#utility.yul\":12744:12748   */\n      dup1\n        /* \"#utility.yul\":12738:12742   */\n      dup4\n        /* \"#utility.yul\":12734:12749   */\n      and\n        /* \"#utility.yul\":12724:12749   */\n      swap2\n      pop\n        /* \"#utility.yul\":12637:12755   */\n      pop\n        /* \"#utility.yul\":12586:12755   */\n      swap3\n      swap2\n      pop\n      pop\n      jump\t// out\n        /* \"#utility.yul\":12760:13055   */\n    tag_117:\n        /* \"#utility.yul\":12836:12840   */\n      0x00\n        /* \"#utility.yul\":12982:13011   */\n      tag_257\n        /* \"#utility.yul\":13007:13010   */\n      dup4\n        /* \"#utility.yul\":13001:13005   */\n      dup4\n        /* \"#utility.yul\":12982:13011   */\n      tag_116\n      jump\t// in\n    tag_257:\n        /* \"#utility.yul\":12974:13011   */\n      swap2\n      pop\n        /* \"#utility.yul\":13044:13047   */\n      dup3\n        /* \"#utility.yul\":13041:13042   */\n      0x02\n        /* \"#utility.yul\":13037:13048   */\n      mul\n        /* \"#utility.yul\":13031:13035   */\n      dup3\n        /* \"#utility.yul\":13028:13049   */\n      or\n        /* \"#utility.yul\":13020:13049   */\n      swap1\n      pop\n        /* \"#utility.yul\":12760:13055   */\n      swap3\n      swap2\n      pop\n      pop\n      jump\t// out\n        /* \"#utility.yul\":13060:14455   */\n    tag_39:\n        /* \"#utility.yul\":13177:13214   */\n      tag_259\n        /* \"#utility.yul\":13210:13213   */\n      dup3\n        /* \"#utility.yul\":13177:13214   */\n      tag_92\n      jump\t// in\n    tag_259:\n        /* \"#utility.yul\":13279:13297   */\n      0xffffffffffffffff\n        /* \"#utility.yul\":13271:13277   */\n      dup2\n        /* \"#utility.yul\":13268:13298   */\n      gt\n        /* \"#utility.yul\":13265:13321   */\n      iszero\n      tag_260\n      jumpi\n        /* \"#utility.yul\":13301:13319   */\n      tag_261\n      tag_81\n      jump\t// in\n    tag_261:\n        /* \"#utility.yul\":13265:13321   */\n    tag_260:\n        /* \"#utility.yul\":13345:13383   */\n      tag_262\n        /* \"#utility.yul\":13377:13381   */\n      dup3\n        /* \"#utility.yul\":13371:13382   */\n      sload\n        /* \"#utility.yul\":13345:13383   */\n      tag_50\n      jump\t// in\n    tag_262:\n        /* \"#utility.yul\":13430:13497   */\n      tag_263\n        /* \"#utility.yul\":13490:13496   */\n      dup3\n        /* \"#utility.yul\":13482:13488   */\n      dup3\n        /* \"#utility.yul\":13476:13480   */\n      dup6\n        /* \"#utility.yul\":13430:13497   */\n      tag_114\n      jump\t// in\n    tag_263:\n        /* \"#utility.yul\":13524:13525   */\n      0x00\n        /* \"#utility.yul\":13548:13552   */\n      0x20\n        /* \"#utility.yul\":13535:13552   */\n      swap1\n      pop\n        /* \"#utility.yul\":13580:13582   */\n      0x1f\n        /* \"#utility.yul\":13572:13578   */\n      dup4\n        /* \"#utility.yul\":13569:13583   */\n      gt\n        /* \"#utility.yul\":13597:13598   */\n      0x01\n        /* \"#utility.yul\":13592:14210   */\n      dup2\n      eq\n      tag_265\n      jumpi\n        /* \"#utility.yul\":14254:14255   */\n      0x00\n        /* \"#utility.yul\":14271:14277   */\n      dup5\n        /* \"#utility.yul\":14268:14345   */\n      iszero\n      tag_266\n      jumpi\n        /* \"#utility.yul\":14320:14329   */\n      dup3\n        /* \"#utility.yul\":14315:14318   */\n      dup8\n        /* \"#utility.yul\":14311:14330   */\n      add\n        /* \"#utility.yul\":14305:14331   */\n      mload\n        /* \"#utility.yul\":14296:14331   */\n      swap1\n      pop\n        /* \"#utility.yul\":14268:14345   */\n    tag_266:\n        /* \"#utility.yul\":14371:14438   */\n      tag_267\n        /* \"#utility.yul\":14431:14437   */\n      dup6\n        /* \"#utility.yul\":14424:14429   */\n      dup3\n        /* \"#utility.yul\":14371:14438   */\n      tag_117\n      jump\t// in\n    tag_267:\n        /* \"#utility.yul\":14365:14369   */\n      dup7\n        /* \"#utility.yul\":14358:14439   */\n      sstore\n        /* \"#utility.yul\":14227:14449   */\n      pop\n        /* \"#utility.yul\":13562:14449   */\n      jump(tag_264)\n        /* \"#utility.yul\":13592:14210   */\n    tag_265:\n        /* \"#utility.yul\":13644:13648   */\n      0x1f\n        /* \"#utility.yul\":13640:13649   */\n      not\n        /* \"#utility.yul\":13632:13638   */\n      dup5\n        /* \"#utility.yul\":13628:13650   */\n      and\n        /* \"#utility.yul\":13678:13715   */\n      tag_268\n        /* \"#utility.yul\":13710:13714   */\n      dup7\n        /* \"#utility.yul\":13678:13715   */\n      tag_103\n      jump\t// in\n    tag_268:\n        /* \"#utility.yul\":13737:13738   */\n      0x00\n        /* \"#utility.yul\":13751:13959   */\n    tag_269:\n        /* \"#utility.yul\":13765:13772   */\n      dup3\n        /* \"#utility.yul\":13762:13763   */\n      dup2\n        /* \"#utility.yul\":13759:13773   */\n      lt\n        /* \"#utility.yul\":13751:13959   */\n      iszero\n      tag_271\n      jumpi\n        /* \"#utility.yul\":13844:13853   */\n      dup5\n        /* \"#utility.yul\":13839:13842   */\n      dup10\n        /* \"#utility.yul\":13835:13854   */\n      add\n        /* \"#utility.yul\":13829:13855   */\n      mload\n        /* \"#utility.yul\":13821:13827   */\n      dup3\n        /* \"#utility.yul\":13814:13856   */\n      sstore\n        /* \"#utility.yul\":13895:13896   */\n      0x01\n        /* \"#utility.yul\":13887:13893   */\n      dup3\n        /* \"#utility.yul\":13883:13897   */\n      add\n        /* \"#utility.yul\":13873:13897   */\n      swap2\n      pop\n        /* \"#utility.yul\":13942:13944   */\n      0x20\n        /* \"#utility.yul\":13931:13940   */\n      dup6\n        /* \"#utility.yul\":13927:13945   */\n      add\n        /* \"#utility.yul\":13914:13945   */\n      swap5\n      pop\n        /* \"#utility.yul\":13788:13792   */\n      0x20\n        /* \"#utility.yul\":13785:13786   */\n      dup2\n        /* \"#utility.yul\":13781:13793   */\n      add\n        /* \"#utility.yul\":13776:13793   */\n      swap1\n      pop\n        /* \"#utility.yul\":13751:13959   */\n      jump(tag_269)\n    tag_271:\n        /* \"#utility.yul\":13987:13993   */\n      dup7\n        /* \"#utility.yul\":13978:13985   */\n      dup4\n        /* \"#utility.yul\":13975:13994   */\n      lt\n        /* \"#utility.yul\":13972:14151   */\n      iszero\n      tag_272\n      jumpi\n        /* \"#utility.yul\":14045:14054   */\n      dup5\n        /* \"#utility.yul\":14040:14043   */\n      dup10\n        /* \"#utility.yul\":14036:14055   */\n      add\n        /* \"#utility.yul\":14030:14056   */\n      mload\n        /* \"#utility.yul\":14088:14136   */\n      tag_273\n        /* \"#utility.yul\":14130:14134   */\n      0x1f\n        /* \"#utility.yul\":14122:14128   */\n      dup10\n        /* \"#utility.yul\":14118:14135   */\n      and\n        /* \"#utility.yul\":14107:14116   */\n      dup3\n        /* \"#utility.yul\":14088:14136   */\n      tag_116\n      jump\t// in\n    tag_273:\n        /* \"#utility.yul\":14080:14086   */\n      dup4\n        /* \"#utility.yul\":14073:14137   */\n      sstore\n        /* \"#utility.yul\":13995:14151   */\n      pop\n        /* \"#utility.yul\":13972:14151   */\n    tag_272:\n        /* \"#utility.yul\":14197:14198   */\n      0x01\n        /* \"#utility.yul\":14193:14194   */\n      0x02\n        /* \"#utility.yul\":14185:14191   */\n      dup9\n        /* \"#utility.yul\":14181:14195   */\n      mul\n        /* \"#utility.yul\":14177:14199   */\n      add\n        /* \"#utility.yul\":14171:14175   */\n      dup9\n        /* \"#utility.yul\":14164:14200   */\n      sstore\n        /* \"#utility.yul\":13599:14210   */\n      pop\n      pop\n      pop\n        /* \"#utility.yul\":13562:14449   */\n    tag_264:\n      pop\n        /* \"#utility.yul\":13152:14455   */\n      pop\n      pop\n      pop\n        /* \"#utility.yul\":13060:14455   */\n      pop\n      pop\n      jump\t// out\n        /* \"#utility.yul\":14461:15509   */\n    tag_43:\n        /* \"#utility.yul\":14754:14758   */\n      0x00\n        /* \"#utility.yul\":14792:14795   */\n      0xc0\n        /* \"#utility.yul\":14781:14790   */\n      dup3\n        /* \"#utility.yul\":14777:14796   */\n      add\n        /* \"#utility.yul\":14769:14796   */\n      swap1\n      pop\n        /* \"#utility.yul\":14806:14877   */\n      tag_275\n        /* \"#utility.yul\":14874:14875   */\n      0x00\n        /* \"#utility.yul\":14863:14872   */\n      dup4\n        /* \"#utility.yul\":14859:14876   */\n      add\n        /* \"#utility.yul\":14850:14856   */\n      dup10\n        /* \"#utility.yul\":14806:14877   */\n      tag_91\n      jump\t// in\n    tag_275:\n        /* \"#utility.yul\":14924:14933   */\n      dup2\n        /* \"#utility.yul\":14918:14922   */\n      dup2\n        /* \"#utility.yul\":14914:14934   */\n      sub\n        /* \"#utility.yul\":14909:14911   */\n      0x20\n        /* \"#utility.yul\":14898:14907   */\n      dup4\n        /* \"#utility.yul\":14894:14912   */\n      add\n        /* \"#utility.yul\":14887:14935   */\n      mstore\n        /* \"#utility.yul\":14952:15030   */\n      tag_276\n        /* \"#utility.yul\":15025:15029   */\n      dup2\n        /* \"#utility.yul\":15016:15022   */\n      dup9\n        /* \"#utility.yul\":14952:15030   */\n      tag_95\n      jump\t// in\n    tag_276:\n        /* \"#utility.yul\":14944:15030   */\n      swap1\n      pop\n        /* \"#utility.yul\":15077:15086   */\n      dup2\n        /* \"#utility.yul\":15071:15075   */\n      dup2\n        /* \"#utility.yul\":15067:15087   */\n      sub\n        /* \"#utility.yul\":15062:15064   */\n      0x40\n        /* \"#utility.yul\":15051:15060   */\n      dup4\n        /* \"#utility.yul\":15047:15065   */\n      add\n        /* \"#utility.yul\":15040:15088   */\n      mstore\n        /* \"#utility.yul\":15105:15183   */\n      tag_277\n        /* \"#utility.yul\":15178:15182   */\n      dup2\n        /* \"#utility.yul\":15169:15175   */\n      dup8\n        /* \"#utility.yul\":15105:15183   */\n      tag_95\n      jump\t// in\n    tag_277:\n        /* \"#utility.yul\":15097:15183   */\n      swap1\n      pop\n        /* \"#utility.yul\":15230:15239   */\n      dup2\n        /* \"#utility.yul\":15224:15228   */\n      dup2\n        /* \"#utility.yul\":15220:15240   */\n      sub\n        /* \"#utility.yul\":15215:15217   */\n      0x60\n        /* \"#utility.yul\":15204:15213   */\n      dup4\n        /* \"#utility.yul\":15200:15218   */\n      add\n        /* \"#utility.yul\":15193:15241   */\n      mstore\n        /* \"#utility.yul\":15258:15336   */\n      tag_278\n        /* \"#utility.yul\":15331:15335   */\n      dup2\n        /* \"#utility.yul\":15322:15328   */\n      dup7\n        /* \"#utility.yul\":15258:15336   */\n      tag_95\n      jump\t// in\n    tag_278:\n        /* \"#utility.yul\":15250:15336   */\n      swap1\n      pop\n        /* \"#utility.yul\":15346:15419   */\n      tag_279\n        /* \"#utility.yul\":15414:15417   */\n      0x80\n        /* \"#utility.yul\":15403:15412   */\n      dup4\n        /* \"#utility.yul\":15399:15418   */\n      add\n        /* \"#utility.yul\":15390:15396   */\n      dup6\n        /* \"#utility.yul\":15346:15419   */\n      tag_91\n      jump\t// in\n    tag_279:\n        /* \"#utility.yul\":15429:15502   */\n      tag_280\n        /* \"#utility.yul\":15497:15500   */\n      0xa0\n        /* \"#utility.yul\":15486:15495   */\n      dup4\n        /* \"#utility.yul\":15482:15501   */\n      add\n        /* \"#utility.yul\":15473:15479   */\n      dup5\n        /* \"#utility.yul\":15429:15502   */\n      tag_91\n      jump\t// in\n    tag_280:\n        /* \"#utility.yul\":14461:15509   */\n      swap8\n      swap7\n      pop\n      pop\n      pop\n      pop\n      pop\n      pop\n      pop\n      jump\t// out\n        /* \"#utility.yul\":15515:15683   */\n    tag_118:\n        /* \"#utility.yul\":15655:15675   */\n      0x496e76616c69642070726f647563742049440000000000000000000000000000\n        /* \"#utility.yul\":15651:15652   */\n      0x00\n        /* \"#utility.yul\":15643:15649   */\n      dup3\n        /* \"#utility.yul\":15639:15653   */\n      add\n        /* \"#utility.yul\":15632:15676   */\n      mstore\n        /* \"#utility.yul\":15515:15683   */\n      pop\n      jump\t// out\n        /* \"#utility.yul\":15689:16055   */\n    tag_119:\n        /* \"#utility.yul\":15831:15834   */\n      0x00\n        /* \"#utility.yul\":15852:15919   */\n      tag_283\n        /* \"#utility.yul\":15916:15918   */\n      0x12\n        /* \"#utility.yul\":15911:15914   */\n      dup4\n        /* \"#utility.yul\":15852:15919   */\n      tag_93\n      jump\t// in\n    tag_283:\n        /* \"#utility.yul\":15845:15919   */\n      swap2\n      pop\n        /* \"#utility.yul\":15928:16021   */\n      tag_284\n        /* \"#utility.yul\":16017:16020   */\n      dup3\n        /* \"#utility.yul\":15928:16021   */\n      tag_118\n      jump\t// in\n    tag_284:\n        /* \"#utility.yul\":16046:16048   */\n      0x20\n        /* \"#utility.yul\":16041:16044   */\n      dup3\n        /* \"#utility.yul\":16037:16049   */\n      add\n        /* \"#utility.yul\":16030:16049   */\n      swap1\n      pop\n        /* \"#utility.yul\":15689:16055   */\n      swap2\n      swap1\n      pop\n      jump\t// out\n        /* \"#utility.yul\":16061:16480   */\n    tag_48:\n        /* \"#utility.yul\":16227:16231   */\n      0x00\n        /* \"#utility.yul\":16265:16267   */\n      0x20\n        /* \"#utility.yul\":16254:16263   */\n      dup3\n        /* \"#utility.yul\":16250:16268   */\n      add\n        /* \"#utility.yul\":16242:16268   */\n      swap1\n      pop\n        /* \"#utility.yul\":16314:16323   */\n      dup2\n        /* \"#utility.yul\":16308:16312   */\n      dup2\n        /* \"#utility.yul\":16304:16324   */\n      sub\n        /* \"#utility.yul\":16300:16301   */\n      0x00\n        /* \"#utility.yul\":16289:16298   */\n      dup4\n        /* \"#utility.yul\":16285:16302   */\n      add\n        /* \"#utility.yul\":16278:16325   */\n      mstore\n        /* \"#utility.yul\":16342:16473   */\n      tag_286\n        /* \"#utility.yul\":16468:16472   */\n      dup2\n        /* \"#utility.yul\":16342:16473   */\n      tag_119\n      jump\t// in\n    tag_286:\n        /* \"#utility.yul\":16334:16473   */\n      swap1\n      pop\n        /* \"#utility.yul\":16061:16480   */\n      swap2\n      swap1\n      pop\n      jump\t// out\n\n    auxdata: 0xa2646970667358221220293fa278ad4522e5ad79343f435ad6845bf76e3e5867db228df6435e2b3d492f64736f6c634300081e0033\n}\n",
				"bytecode": {
					"linkReferences": {},
					"object": "6080604052348015600e575f5ffd5b50335f5f6101000a81548173ffffffffffffffffffffffffffffffffffffffff021916908373ffffffffffffffffffffffffffffffffffffffff160217905550610fbd8061005b5f395ff3fe608060405234801561000f575f5ffd5b5060043610610055575f3560e01c80630101e18514610059578063449c092414610075578063472ec454146100935780638da5cb5b146100c7578063f7746e36146100e5575b5f5ffd5b610073600480360381019061006e919061086d565b61011a565b005b61007d610312565b60405161008a9190610934565b60405180910390f35b6100ad60048036038101906100a8919061094d565b610318565b6040516100be959493929190610a17565b60405180910390f35b6100cf6104e0565b6040516100dc9190610a76565b60405180910390f35b6100ff60048036038101906100fa919061094d565b610504565b60405161011196959493929190610a8f565b60405180910390f35b5f5f9054906101000a900473ffffffffffffffffffffffffffffffffffffffff1673ffffffffffffffffffffffffffffffffffffffff163373ffffffffffffffffffffffffffffffffffffffff16146101a8576040517f08c379a000000000000000000000000000000000000000000000000000000000815260040161019f90610b4d565b60405180910390fd5b60015f8154809291906101ba90610b98565b91905055506040518060c001604052803373ffffffffffffffffffffffffffffffffffffffff1681526020018581526020018481526020018381526020018281526020014281525060025f60015481526020019081526020015f205f820151815f015f6101000a81548173ffffffffffffffffffffffffffffffffffffffff021916908373ffffffffffffffffffffffffffffffffffffffff160217905550602082015181600101908161026e9190610ddc565b5060408201518160020190816102849190610ddc565b50606082015181600301908161029a9190610ddc565b506080820151816004015560a082015181600501559050503373ffffffffffffffffffffffffffffffffffffffff167f9bf0e8216076488ebc6f25b1db9caa1bcc61b48ef9e6f75e34c4f369706e426a600154868686864260405161030496959493929190610eab565b60405180910390a250505050565b60015481565b60605f60605f5f5f8611801561033057506001548611155b61036f576040517f08c379a000000000000000000000000000000000000000000000000000000000815260040161036690610f69565b60405180910390fd5b5f60025f8881526020019081526020015f20905080600101815f015f9054906101000a900473ffffffffffffffffffffffffffffffffffffffff1682600201836004015484600501548480546103c490610c0c565b80601f01602080910402602001604051908101604052809291908181526020018280546103f090610c0c565b801561043b5780601f106104125761010080835404028352916020019161043b565b820191905f5260205f20905b81548152906001019060200180831161041e57829003601f168201915b5050505050945082805461044e90610c0c565b80601f016020809104026020016040519081016040528092919081815260200182805461047a90610c0c565b80156104c55780601f1061049c576101008083540402835291602001916104c5565b820191905f5260205f20905b8154815290600101906020018083116104a857829003601f168201915b50505050509250955095509550955095505091939590929450565b5f5f9054906101000a900473ffffffffffffffffffffffffffffffffffffffff1681565b6002602052805f5260405f205f91509050805f015f9054906101000a900473ffffffffffffffffffffffffffffffffffffffff169080600101805461054890610c0c565b80601f016020809104026020016040519081016040528092919081815260200182805461057490610c0c565b80156105bf5780601f10610596576101008083540402835291602001916105bf565b820191905f5260205f20905b8154815290600101906020018083116105a257829003601f168201915b5050505050908060020180546105d490610c0c565b80601f016020809104026020016040519081016040528092919081815260200182805461060090610c0c565b801561064b5780601f106106225761010080835404028352916020019161064b565b820191905f5260205f20905b81548152906001019060200180831161062e57829003601f168201915b50505050509080600301805461066090610c0c565b80601f016020809104026020016040519081016040528092919081815260200182805461068c90610c0c565b80156106d75780601f106106ae576101008083540402835291602001916106d7565b820191905f5260205f20905b8154815290600101906020018083116106ba57829003601f168201915b5050505050908060040154908060050154905086565b5f604051905090565b5f5ffd5b5f5ffd5b5f5ffd5b5f5ffd5b5f601f19601f8301169050919050565b7f4e487b71000000000000000000000000000000000000000000000000000000005f52604160045260245ffd5b61074c82610706565b810181811067ffffffffffffffff8211171561076b5761076a610716565b5b80604052505050565b5f61077d6106ed565b90506107898282610743565b919050565b5f67ffffffffffffffff8211156107a8576107a7610716565b5b6107b182610706565b9050602081019050919050565b828183375f83830152505050565b5f6107de6107d98461078e565b610774565b9050828152602081018484840111156107fa576107f9610702565b5b6108058482856107be565b509392505050565b5f82601f830112610821576108206106fe565b5b81356108318482602086016107cc565b91505092915050565b5f819050919050565b61084c8161083a565b8114610856575f5ffd5b50565b5f8135905061086781610843565b92915050565b5f5f5f5f60808587031215610885576108846106f6565b5b5f85013567ffffffffffffffff8111156108a2576108a16106fa565b5b6108ae8782880161080d565b945050602085013567ffffffffffffffff8111156108cf576108ce6106fa565b5b6108db8782880161080d565b935050604085013567ffffffffffffffff8111156108fc576108fb6106fa565b5b6109088782880161080d565b925050606061091987828801610859565b91505092959194509250565b61092e8161083a565b82525050565b5f6020820190506109475f830184610925565b92915050565b5f60208284031215610962576109616106f6565b5b5f61096f84828501610859565b91505092915050565b5f81519050919050565b5f82825260208201905092915050565b8281835e5f83830152505050565b5f6109aa82610978565b6109b48185610982565b93506109c4818560208601610992565b6109cd81610706565b840191505092915050565b5f73ffffffffffffffffffffffffffffffffffffffff82169050919050565b5f610a01826109d8565b9050919050565b610a11816109f7565b82525050565b5f60a0820190508181035f830152610a2f81886109a0565b9050610a3e6020830187610a08565b8181036040830152610a5081866109a0565b9050610a5f6060830185610925565b610a6c6080830184610925565b9695505050505050565b5f602082019050610a895f830184610a08565b92915050565b5f60c082019050610aa25f830189610a08565b8181036020830152610ab481886109a0565b90508181036040830152610ac881876109a0565b90508181036060830152610adc81866109a0565b9050610aeb6080830185610925565b610af860a0830184610925565b979650505050505050565b7f596f7520617265206e6f7420746865206f776e657200000000000000000000005f82015250565b5f610b37601583610982565b9150610b4282610b03565b602082019050919050565b5f6020820190508181035f830152610b6481610b2b565b9050919050565b7f4e487b71000000000000000000000000000000000000000000000000000000005f52601160045260245ffd5b5f610ba28261083a565b91507fffffffffffffffffffffffffffffffffffffffffffffffffffffffffffffffff8203610bd457610bd3610b6b565b5b600182019050919050565b7f4e487b71000000000000000000000000000000000000000000000000000000005f52602260045260245ffd5b5f6002820490506001821680610c2357607f821691505b602082108103610c3657610c35610bdf565b5b50919050565b5f819050815f5260205f209050919050565b5f6020601f8301049050919050565b5f82821b905092915050565b5f60088302610c987fffffffffffffffffffffffffffffffffffffffffffffffffffffffffffffffff82610c5d565b610ca28683610c5d565b95508019841693508086168417925050509392505050565b5f819050919050565b5f610cdd610cd8610cd38461083a565b610cba565b61083a565b9050919050565b5f819050919050565b610cf683610cc3565b610d0a610d0282610ce4565b848454610c69565b825550505050565b5f5f905090565b610d21610d12565b610d2c818484610ced565b505050565b5b81811015610d4f57610d445f82610d19565b600181019050610d32565b5050565b601f821115610d9457610d6581610c3c565b610d6e84610c4e565b81016020851015610d7d578190505b610d91610d8985610c4e565b830182610d31565b50505b505050565b5f82821c905092915050565b5f610db45f1984600802610d99565b1980831691505092915050565b5f610dcc8383610da5565b9150826002028217905092915050565b610de582610978565b67ffffffffffffffff811115610dfe57610dfd610716565b5b610e088254610c0c565b610e13828285610d53565b5f60209050601f831160018114610e44575f8415610e32578287015190505b610e3c8582610dc1565b865550610ea3565b601f198416610e5286610c3c565b5f5b82811015610e7957848901518255600182019150602085019450602081019050610e54565b86831015610e965784890151610e92601f891682610da5565b8355505b6001600288020188555050505b505050505050565b5f60c082019050610ebe5f830189610925565b8181036020830152610ed081886109a0565b90508181036040830152610ee481876109a0565b90508181036060830152610ef881866109a0565b9050610f076080830185610925565b610f1460a0830184610925565b979650505050505050565b7f496e76616c69642070726f6475637420494400000000000000000000000000005f82015250565b5f610f53601283610982565b9150610f5e82610f1f565b602082019050919050565b5f6020820190508181035f830152610f8081610f47565b905091905056fea2646970667358221220293fa278ad4522e5ad79343f435ad6845bf76e3e5867db228df6435e2b3d492f64736f6c634300081e0033",
					"opcodes": "PUSH1 0x80 PUSH1 0x40 MSTORE CALLVALUE DUP1 ISZERO PUSH1 0xE JUMPI PUSH0 PUSH0 REVERT JUMPDEST POP CALLER PUSH0 PUSH0 PUSH2 0x100 EXP DUP2 SLOAD DUP2 PUSH20 0xFFFFFFFFFFFFFFFFFFFFFFFFFFFFFFFFFFFFFFFF MUL NOT AND SWAP1 DUP4 PUSH20 0xFFFFFFFFFFFFFFFFFFFFFFFFFFFFFFFFFFFFFFFF AND MUL OR SWAP1 SSTORE POP PUSH2 0xFBD DUP1 PUSH2 0x5B PUSH0 CODECOPY PUSH0 RETURN INVALID PUSH1 0x80 PUSH1 0x40 MSTORE CALLVALUE DUP1 ISZERO PUSH2 0xF JUMPI PUSH0 PUSH0 REVERT JUMPDEST POP PUSH1 0x4 CALLDATASIZE LT PUSH2 0x55 JUMPI PUSH0 CALLDATALOAD PUSH1 0xE0 SHR DUP1 PUSH4 0x101E185 EQ PUSH2 0x59 JUMPI DUP1 PUSH4 0x449C0924 EQ PUSH2 0x75 JUMPI DUP1 PUSH4 0x472EC454 EQ PUSH2 0x93 JUMPI DUP1 PUSH4 0x8DA5CB5B EQ PUSH2 0xC7 JUMPI DUP1 PUSH4 0xF7746E36 EQ PUSH2 0xE5 JUMPI JUMPDEST PUSH0 PUSH0 REVERT JUMPDEST PUSH2 0x73 PUSH1 0x4 DUP1 CALLDATASIZE SUB DUP2 ADD SWAP1 PUSH2 0x6E SWAP2 SWAP1 PUSH2 0x86D JUMP JUMPDEST PUSH2 0x11A JUMP JUMPDEST STOP JUMPDEST PUSH2 0x7D PUSH2 0x312 JUMP JUMPDEST PUSH1 0x40 MLOAD PUSH2 0x8A SWAP2 SWAP1 PUSH2 0x934 JUMP JUMPDEST PUSH1 0x40 MLOAD DUP1 SWAP2 SUB SWAP1 RETURN JUMPDEST PUSH2 0xAD PUSH1 0x4 DUP1 CALLDATASIZE SUB DUP2 ADD SWAP1 PUSH2 0xA8 SWAP2 SWAP1 PUSH2 0x94D JUMP JUMPDEST PUSH2 0x318 JUMP JUMPDEST PUSH1 0x40 MLOAD PUSH2 0xBE SWAP6 SWAP5 SWAP4 SWAP3 SWAP2 SWAP1 PUSH2 0xA17 JUMP JUMPDEST PUSH1 0x40 MLOAD DUP1 SWAP2 SUB SWAP1 RETURN JUMPDEST PUSH2 0xCF PUSH2 0x4E0 JUMP JUMPDEST PUSH1 0x40 MLOAD PUSH2 0xDC SWAP2 SWAP1 PUSH2 0xA76 JUMP JUMPDEST PUSH1 0x40 MLOAD DUP1 SWAP2 SUB SWAP1 RETURN JUMPDEST PUSH2 0xFF PUSH1 0x4 DUP1 CALLDATASIZE SUB DUP2 ADD SWAP1 PUSH2 0xFA SWAP2 SWAP1 PUSH2 0x94D JUMP JUMPDEST PUSH2 0x504 JUMP JUMPDEST PUSH1 0x40 MLOAD PUSH2 0x111 SWAP7 SWAP6 SWAP5 SWAP4 SWAP3 SWAP2 SWAP1 PUSH2 0xA8F JUMP JUMPDEST PUSH1 0x40 MLOAD DUP1 SWAP2 SUB SWAP1 RETURN JUMPDEST PUSH0 PUSH0 SWAP1 SLOAD SWAP1 PUSH2 0x100 EXP SWAP1 DIV PUSH20 0xFFFFFFFFFFFFFFFFFFFFFFFFFFFFFFFFFFFFFFFF AND PUSH20 0xFFFFFFFFFFFFFFFFFFFFFFFFFFFFFFFFFFFFFFFF AND CALLER PUSH20 0xFFFFFFFFFFFFFFFFFFFFFFFFFFFFFFFFFFFFFFFF AND EQ PUSH2 0x1A8 JUMPI PUSH1 0x40 MLOAD PUSH32 0x8C379A000000000000000000000000000000000000000000000000000000000 DUP2 MSTORE PUSH1 0x4 ADD PUSH2 0x19F SWAP1 PUSH2 0xB4D JUMP JUMPDEST PUSH1 0x40 MLOAD DUP1 SWAP2 SUB SWAP1 REVERT JUMPDEST PUSH1 0x1 PUSH0 DUP2 SLOAD DUP1 SWAP3 SWAP2 SWAP1 PUSH2 0x1BA SWAP1 PUSH2 0xB98 JUMP JUMPDEST SWAP2 SWAP1 POP SSTORE POP PUSH1 0x40 MLOAD DUP1 PUSH1 0xC0 ADD PUSH1 0x40 MSTORE DUP1 CALLER PUSH20 0xFFFFFFFFFFFFFFFFFFFFFFFFFFFFFFFFFFFFFFFF AND DUP2 MSTORE PUSH1 0x20 ADD DUP6 DUP2 MSTORE PUSH1 0x20 ADD DUP5 DUP2 MSTORE PUSH1 0x20 ADD DUP4 DUP2 MSTORE PUSH1 0x20 ADD DUP3 DUP2 MSTORE PUSH1 0x20 ADD TIMESTAMP DUP2 MSTORE POP PUSH1 0x2 PUSH0 PUSH1 0x1 SLOAD DUP2 MSTORE PUSH1 0x20 ADD SWAP1 DUP2 MSTORE PUSH1 0x20 ADD PUSH0 KECCAK256 PUSH0 DUP3 ADD MLOAD DUP2 PUSH0 ADD PUSH0 PUSH2 0x100 EXP DUP2 SLOAD DUP2 PUSH20 0xFFFFFFFFFFFFFFFFFFFFFFFFFFFFFFFFFFFFFFFF MUL NOT AND SWAP1 DUP4 PUSH20 0xFFFFFFFFFFFFFFFFFFFFFFFFFFFFFFFFFFFFFFFF AND MUL OR SWAP1 SSTORE POP PUSH1 0x20 DUP3 ADD MLOAD DUP2 PUSH1 0x1 ADD SWAP1 DUP2 PUSH2 0x26E SWAP2 SWAP1 PUSH2 0xDDC JUMP JUMPDEST POP PUSH1 0x40 DUP3 ADD MLOAD DUP2 PUSH1 0x2 ADD SWAP1 DUP2 PUSH2 0x284 SWAP2 SWAP1 PUSH2 0xDDC JUMP JUMPDEST POP PUSH1 0x60 DUP3 ADD MLOAD DUP2 PUSH1 0x3 ADD SWAP1 DUP2 PUSH2 0x29A SWAP2 SWAP1 PUSH2 0xDDC JUMP JUMPDEST POP PUSH1 0x80 DUP3 ADD MLOAD DUP2 PUSH1 0x4 ADD SSTORE PUSH1 0xA0 DUP3 ADD MLOAD DUP2 PUSH1 0x5 ADD SSTORE SWAP1 POP POP CALLER PUSH20 0xFFFFFFFFFFFFFFFFFFFFFFFFFFFFFFFFFFFFFFFF AND PUSH32 0x9BF0E8216076488EBC6F25B1DB9CAA1BCC61B48EF9E6F75E34C4F369706E426A PUSH1 0x1 SLOAD DUP7 DUP7 DUP7 DUP7 TIMESTAMP PUSH1 0x40 MLOAD PUSH2 0x304 SWAP7 SWAP6 SWAP5 SWAP4 SWAP3 SWAP2 SWAP1 PUSH2 0xEAB JUMP JUMPDEST PUSH1 0x40 MLOAD DUP1 SWAP2 SUB SWAP1 LOG2 POP POP POP POP JUMP JUMPDEST PUSH1 0x1 SLOAD DUP2 JUMP JUMPDEST PUSH1 0x60 PUSH0 PUSH1 0x60 PUSH0 PUSH0 PUSH0 DUP7 GT DUP1 ISZERO PUSH2 0x330 JUMPI POP PUSH1 0x1 SLOAD DUP7 GT ISZERO JUMPDEST PUSH2 0x36F JUMPI PUSH1 0x40 MLOAD PUSH32 0x8C379A000000000000000000000000000000000000000000000000000000000 DUP2 MSTORE PUSH1 0x4 ADD PUSH2 0x366 SWAP1 PUSH2 0xF69 JUMP JUMPDEST PUSH1 0x40 MLOAD DUP1 SWAP2 SUB SWAP1 REVERT JUMPDEST PUSH0 PUSH1 0x2 PUSH0 DUP9 DUP2 MSTORE PUSH1 0x20 ADD SWAP1 DUP2 MSTORE PUSH1 0x20 ADD PUSH0 KECCAK256 SWAP1 POP DUP1 PUSH1 0x1 ADD DUP2 PUSH0 ADD PUSH0 SWAP1 SLOAD SWAP1 PUSH2 0x100 EXP SWAP1 DIV PUSH20 0xFFFFFFFFFFFFFFFFFFFFFFFFFFFFFFFFFFFFFFFF AND DUP3 PUSH1 0x2 ADD DUP4 PUSH1 0x4 ADD SLOAD DUP5 PUSH1 0x5 ADD SLOAD DUP5 DUP1 SLOAD PUSH2 0x3C4 SWAP1 PUSH2 0xC0C JUMP JUMPDEST DUP1 PUSH1 0x1F ADD PUSH1 0x20 DUP1 SWAP2 DIV MUL PUSH1 0x20 ADD PUSH1 0x40 MLOAD SWAP1 DUP2 ADD PUSH1 0x40 MSTORE DUP1 SWAP3 SWAP2 SWAP1 DUP2 DUP2 MSTORE PUSH1 0x20 ADD DUP3 DUP1 SLOAD PUSH2 0x3F0 SWAP1 PUSH2 0xC0C JUMP JUMPDEST DUP1 ISZERO PUSH2 0x43B JUMPI DUP1 PUSH1 0x1F LT PUSH2 0x412 JUMPI PUSH2 0x100 DUP1 DUP4 SLOAD DIV MUL DUP4 MSTORE SWAP2 PUSH1 0x20 ADD SWAP2 PUSH2 0x43B JUMP JUMPDEST DUP3 ADD SWAP2 SWAP1 PUSH0 MSTORE PUSH1 0x20 PUSH0 KECCAK256 SWAP1 JUMPDEST DUP2 SLOAD DUP2 MSTORE SWAP1 PUSH1 0x1 ADD SWAP1 PUSH1 0x20 ADD DUP1 DUP4 GT PUSH2 0x41E JUMPI DUP3 SWAP1 SUB PUSH1 0x1F AND DUP3 ADD SWAP2 JUMPDEST POP POP POP POP POP SWAP5 POP DUP3 DUP1 SLOAD PUSH2 0x44E SWAP1 PUSH2 0xC0C JUMP JUMPDEST DUP1 PUSH1 0x1F ADD PUSH1 0x20 DUP1 SWAP2 DIV MUL PUSH1 0x20 ADD PUSH1 0x40 MLOAD SWAP1 DUP2 ADD PUSH1 0x40 MSTORE DUP1 SWAP3 SWAP2 SWAP1 DUP2 DUP2 MSTORE PUSH1 0x20 ADD DUP3 DUP1 SLOAD PUSH2 0x47A SWAP1 PUSH2 0xC0C JUMP JUMPDEST DUP1 ISZERO PUSH2 0x4C5 JUMPI DUP1 PUSH1 0x1F LT PUSH2 0x49C JUMPI PUSH2 0x100 DUP1 DUP4 SLOAD DIV MUL DUP4 MSTORE SWAP2 PUSH1 0x20 ADD SWAP2 PUSH2 0x4C5 JUMP JUMPDEST DUP3 ADD SWAP2 SWAP1 PUSH0 MSTORE PUSH1 0x20 PUSH0 KECCAK256 SWAP1 JUMPDEST DUP2 SLOAD DUP2 MSTORE SWAP1 PUSH1 0x1 ADD SWAP1 PUSH1 0x20 ADD DUP1 DUP4 GT PUSH2 0x4A8 JUMPI DUP3 SWAP1 SUB PUSH1 0x1F AND DUP3 ADD SWAP2 JUMPDEST POP POP POP POP POP SWAP3 POP SWAP6 POP SWAP6 POP SWAP6 POP SWAP6 POP SWAP6 POP POP SWAP2 SWAP4 SWAP6 SWAP1 SWAP3 SWAP5 POP JUMP JUMPDEST PUSH0 PUSH0 SWAP1 SLOAD SWAP1 PUSH2 0x100 EXP SWAP1 DIV PUSH20 0xFFFFFFFFFFFFFFFFFFFFFFFFFFFFFFFFFFFFFFFF AND DUP2 JUMP JUMPDEST PUSH1 0x2 PUSH1 0x20 MSTORE DUP1 PUSH0 MSTORE PUSH1 0x40 PUSH0 KECCAK256 PUSH0 SWAP2 POP SWAP1 POP DUP1 PUSH0 ADD PUSH0 SWAP1 SLOAD SWAP1 PUSH2 0x100 EXP SWAP1 DIV PUSH20 0xFFFFFFFFFFFFFFFFFFFFFFFFFFFFFFFFFFFFFFFF AND SWAP1 DUP1 PUSH1 0x1 ADD DUP1 SLOAD PUSH2 0x548 SWAP1 PUSH2 0xC0C JUMP JUMPDEST DUP1 PUSH1 0x1F ADD PUSH1 0x20 DUP1 SWAP2 DIV MUL PUSH1 0x20 ADD PUSH1 0x40 MLOAD SWAP1 DUP2 ADD PUSH1 0x40 MSTORE DUP1 SWAP3 SWAP2 SWAP1 DUP2 DUP2 MSTORE PUSH1 0x20 ADD DUP3 DUP1 SLOAD PUSH2 0x574 SWAP1 PUSH2 0xC0C JUMP JUMPDEST DUP1 ISZERO PUSH2 0x5BF JUMPI DUP1 PUSH1 0x1F LT PUSH2 0x596 JUMPI PUSH2 0x100 DUP1 DUP4 SLOAD DIV MUL DUP4 MSTORE SWAP2 PUSH1 0x20 ADD SWAP2 PUSH2 0x5BF JUMP JUMPDEST DUP3 ADD SWAP2 SWAP1 PUSH0 MSTORE PUSH1 0x20 PUSH0 KECCAK256 SWAP1 JUMPDEST DUP2 SLOAD DUP2 MSTORE SWAP1 PUSH1 0x1 ADD SWAP1 PUSH1 0x20 ADD DUP1 DUP4 GT PUSH2 0x5A2 JUMPI DUP3 SWAP1 SUB PUSH1 0x1F AND DUP3 ADD SWAP2 JUMPDEST POP POP POP POP POP SWAP1 DUP1 PUSH1 0x2 ADD DUP1 SLOAD PUSH2 0x5D4 SWAP1 PUSH2 0xC0C JUMP JUMPDEST DUP1 PUSH1 0x1F ADD PUSH1 0x20 DUP1 SWAP2 DIV MUL PUSH1 0x20 ADD PUSH1 0x40 MLOAD SWAP1 DUP2 ADD PUSH1 0x40 MSTORE DUP1 SWAP3 SWAP2 SWAP1 DUP2 DUP2 MSTORE PUSH1 0x20 ADD DUP3 DUP1 SLOAD PUSH2 0x600 SWAP1 PUSH2 0xC0C JUMP JUMPDEST DUP1 ISZERO PUSH2 0x64B JUMPI DUP1 PUSH1 0x1F LT PUSH2 0x622 JUMPI PUSH2 0x100 DUP1 DUP4 SLOAD DIV MUL DUP4 MSTORE SWAP2 PUSH1 0x20 ADD SWAP2 PUSH2 0x64B JUMP JUMPDEST DUP3 ADD SWAP2 SWAP1 PUSH0 MSTORE PUSH1 0x20 PUSH0 KECCAK256 SWAP1 JUMPDEST DUP2 SLOAD DUP2 MSTORE SWAP1 PUSH1 0x1 ADD SWAP1 PUSH1 0x20 ADD DUP1 DUP4 GT PUSH2 0x62E JUMPI DUP3 SWAP1 SUB PUSH1 0x1F AND DUP3 ADD SWAP2 JUMPDEST POP POP POP POP POP SWAP1 DUP1 PUSH1 0x3 ADD DUP1 SLOAD PUSH2 0x660 SWAP1 PUSH2 0xC0C JUMP JUMPDEST DUP1 PUSH1 0x1F ADD PUSH1 0x20 DUP1 SWAP2 DIV MUL PUSH1 0x20 ADD PUSH1 0x40 MLOAD SWAP1 DUP2 ADD PUSH1 0x40 MSTORE DUP1 SWAP3 SWAP2 SWAP1 DUP2 DUP2 MSTORE PUSH1 0x20 ADD DUP3 DUP1 SLOAD PUSH2 0x68C SWAP1 PUSH2 0xC0C JUMP JUMPDEST DUP1 ISZERO PUSH2 0x6D7 JUMPI DUP1 PUSH1 0x1F LT PUSH2 0x6AE JUMPI PUSH2 0x100 DUP1 DUP4 SLOAD DIV MUL DUP4 MSTORE SWAP2 PUSH1 0x20 ADD SWAP2 PUSH2 0x6D7 JUMP JUMPDEST DUP3 ADD SWAP2 SWAP1 PUSH0 MSTORE PUSH1 0x20 PUSH0 KECCAK256 SWAP1 JUMPDEST DUP2 SLOAD DUP2 MSTORE SWAP1 PUSH1 0x1 ADD SWAP1 PUSH1 0x20 ADD DUP1 DUP4 GT PUSH2 0x6BA JUMPI DUP3 SWAP1 SUB PUSH1 0x1F AND DUP3 ADD SWAP2 JUMPDEST POP POP POP POP POP SWAP1 DUP1 PUSH1 0x4 ADD SLOAD SWAP1 DUP1 PUSH1 0x5 ADD SLOAD SWAP1 POP DUP7 JUMP JUMPDEST PUSH0 PUSH1 0x40 MLOAD SWAP1 POP SWAP1 JUMP JUMPDEST PUSH0 PUSH0 REVERT JUMPDEST PUSH0 PUSH0 REVERT JUMPDEST PUSH0 PUSH0 REVERT JUMPDEST PUSH0 PUSH0 REVERT JUMPDEST PUSH0 PUSH1 0x1F NOT PUSH1 0x1F DUP4 ADD AND SWAP1 POP SWAP2 SWAP1 POP JUMP JUMPDEST PUSH32 0x4E487B7100000000000000000000000000000000000000000000000000000000 PUSH0 MSTORE PUSH1 0x41 PUSH1 0x4 MSTORE PUSH1 0x24 PUSH0 REVERT JUMPDEST PUSH2 0x74C DUP3 PUSH2 0x706 JUMP JUMPDEST DUP2 ADD DUP2 DUP2 LT PUSH8 0xFFFFFFFFFFFFFFFF DUP3 GT OR ISZERO PUSH2 0x76B JUMPI PUSH2 0x76A PUSH2 0x716 JUMP JUMPDEST JUMPDEST DUP1 PUSH1 0x40 MSTORE POP POP POP JUMP JUMPDEST PUSH0 PUSH2 0x77D PUSH2 0x6ED JUMP JUMPDEST SWAP1 POP PUSH2 0x789 DUP3 DUP3 PUSH2 0x743 JUMP JUMPDEST SWAP2 SWAP1 POP JUMP JUMPDEST PUSH0 PUSH8 0xFFFFFFFFFFFFFFFF DUP3 GT ISZERO PUSH2 0x7A8 JUMPI PUSH2 0x7A7 PUSH2 0x716 JUMP JUMPDEST JUMPDEST PUSH2 0x7B1 DUP3 PUSH2 0x706 JUMP JUMPDEST SWAP1 POP PUSH1 0x20 DUP2 ADD SWAP1 POP SWAP2 SWAP1 POP JUMP JUMPDEST DUP3 DUP2 DUP4 CALLDATACOPY PUSH0 DUP4 DUP4 ADD MSTORE POP POP POP JUMP JUMPDEST PUSH0 PUSH2 0x7DE PUSH2 0x7D9 DUP5 PUSH2 0x78E JUMP JUMPDEST PUSH2 0x774 JUMP JUMPDEST SWAP1 POP DUP3 DUP2 MSTORE PUSH1 0x20 DUP2 ADD DUP5 DUP5 DUP5 ADD GT ISZERO PUSH2 0x7FA JUMPI PUSH2 0x7F9 PUSH2 0x702 JUMP JUMPDEST JUMPDEST PUSH2 0x805 DUP5 DUP3 DUP6 PUSH2 0x7BE JUMP JUMPDEST POP SWAP4 SWAP3 POP POP POP JUMP JUMPDEST PUSH0 DUP3 PUSH1 0x1F DUP4 ADD SLT PUSH2 0x821 JUMPI PUSH2 0x820 PUSH2 0x6FE JUMP JUMPDEST JUMPDEST DUP2 CALLDATALOAD PUSH2 0x831 DUP5 DUP3 PUSH1 0x20 DUP7 ADD PUSH2 0x7CC JUMP JUMPDEST SWAP2 POP POP SWAP3 SWAP2 POP POP JUMP JUMPDEST PUSH0 DUP2 SWAP1 POP SWAP2 SWAP1 POP JUMP JUMPDEST PUSH2 0x84C DUP2 PUSH2 0x83A JUMP JUMPDEST DUP2 EQ PUSH2 0x856 JUMPI PUSH0 PUSH0 REVERT JUMPDEST POP JUMP JUMPDEST PUSH0 DUP2 CALLDATALOAD SWAP1 POP PUSH2 0x867 DUP2 PUSH2 0x843 JUMP JUMPDEST SWAP3 SWAP2 POP POP JUMP JUMPDEST PUSH0 PUSH0 PUSH0 PUSH0 PUSH1 0x80 DUP6 DUP8 SUB SLT ISZERO PUSH2 0x885 JUMPI PUSH2 0x884 PUSH2 0x6F6 JUMP JUMPDEST JUMPDEST PUSH0 DUP6 ADD CALLDATALOAD PUSH8 0xFFFFFFFFFFFFFFFF DUP2 GT ISZERO PUSH2 0x8A2 JUMPI PUSH2 0x8A1 PUSH2 0x6FA JUMP JUMPDEST JUMPDEST PUSH2 0x8AE DUP8 DUP3 DUP9 ADD PUSH2 0x80D JUMP JUMPDEST SWAP5 POP POP PUSH1 0x20 DUP6 ADD CALLDATALOAD PUSH8 0xFFFFFFFFFFFFFFFF DUP2 GT ISZERO PUSH2 0x8CF JUMPI PUSH2 0x8CE PUSH2 0x6FA JUMP JUMPDEST JUMPDEST PUSH2 0x8DB DUP8 DUP3 DUP9 ADD PUSH2 0x80D JUMP JUMPDEST SWAP4 POP POP PUSH1 0x40 DUP6 ADD CALLDATALOAD PUSH8 0xFFFFFFFFFFFFFFFF DUP2 GT ISZERO PUSH2 0x8FC JUMPI PUSH2 0x8FB PUSH2 0x6FA JUMP JUMPDEST JUMPDEST PUSH2 0x908 DUP8 DUP3 DUP9 ADD PUSH2 0x80D JUMP JUMPDEST SWAP3 POP POP PUSH1 0x60 PUSH2 0x919 DUP8 DUP3 DUP9 ADD PUSH2 0x859 JUMP JUMPDEST SWAP2 POP POP SWAP3 SWAP6 SWAP2 SWAP5 POP SWAP3 POP JUMP JUMPDEST PUSH2 0x92E DUP2 PUSH2 0x83A JUMP JUMPDEST DUP3 MSTORE POP POP JUMP JUMPDEST PUSH0 PUSH1 0x20 DUP3 ADD SWAP1 POP PUSH2 0x947 PUSH0 DUP4 ADD DUP5 PUSH2 0x925 JUMP JUMPDEST SWAP3 SWAP2 POP POP JUMP JUMPDEST PUSH0 PUSH1 0x20 DUP3 DUP5 SUB SLT ISZERO PUSH2 0x962 JUMPI PUSH2 0x961 PUSH2 0x6F6 JUMP JUMPDEST JUMPDEST PUSH0 PUSH2 0x96F DUP5 DUP3 DUP6 ADD PUSH2 0x859 JUMP JUMPDEST SWAP2 POP POP SWAP3 SWAP2 POP POP JUMP JUMPDEST PUSH0 DUP2 MLOAD SWAP1 POP SWAP2 SWAP1 POP JUMP JUMPDEST PUSH0 DUP3 DUP3 MSTORE PUSH1 0x20 DUP3 ADD SWAP1 POP SWAP3 SWAP2 POP POP JUMP JUMPDEST DUP3 DUP2 DUP4 MCOPY PUSH0 DUP4 DUP4 ADD MSTORE POP POP POP JUMP JUMPDEST PUSH0 PUSH2 0x9AA DUP3 PUSH2 0x978 JUMP JUMPDEST PUSH2 0x9B4 DUP2 DUP6 PUSH2 0x982 JUMP JUMPDEST SWAP4 POP PUSH2 0x9C4 DUP2 DUP6 PUSH1 0x20 DUP7 ADD PUSH2 0x992 JUMP JUMPDEST PUSH2 0x9CD DUP2 PUSH2 0x706 JUMP JUMPDEST DUP5 ADD SWAP2 POP POP SWAP3 SWAP2 POP POP JUMP JUMPDEST PUSH0 PUSH20 0xFFFFFFFFFFFFFFFFFFFFFFFFFFFFFFFFFFFFFFFF DUP3 AND SWAP1 POP SWAP2 SWAP1 POP JUMP JUMPDEST PUSH0 PUSH2 0xA01 DUP3 PUSH2 0x9D8 JUMP JUMPDEST SWAP1 POP SWAP2 SWAP1 POP JUMP JUMPDEST PUSH2 0xA11 DUP2 PUSH2 0x9F7 JUMP JUMPDEST DUP3 MSTORE POP POP JUMP JUMPDEST PUSH0 PUSH1 0xA0 DUP3 ADD SWAP1 POP DUP2 DUP2 SUB PUSH0 DUP4 ADD MSTORE PUSH2 0xA2F DUP2 DUP9 PUSH2 0x9A0 JUMP JUMPDEST SWAP1 POP PUSH2 0xA3E PUSH1 0x20 DUP4 ADD DUP8 PUSH2 0xA08 JUMP JUMPDEST DUP2 DUP2 SUB PUSH1 0x40 DUP4 ADD MSTORE PUSH2 0xA50 DUP2 DUP7 PUSH2 0x9A0 JUMP JUMPDEST SWAP1 POP PUSH2 0xA5F PUSH1 0x60 DUP4 ADD DUP6 PUSH2 0x925 JUMP JUMPDEST PUSH2 0xA6C PUSH1 0x80 DUP4 ADD DUP5 PUSH2 0x925 JUMP JUMPDEST SWAP7 SWAP6 POP POP POP POP POP POP JUMP JUMPDEST PUSH0 PUSH1 0x20 DUP3 ADD SWAP1 POP PUSH2 0xA89 PUSH0 DUP4 ADD DUP5 PUSH2 0xA08 JUMP JUMPDEST SWAP3 SWAP2 POP POP JUMP JUMPDEST PUSH0 PUSH1 0xC0 DUP3 ADD SWAP1 POP PUSH2 0xAA2 PUSH0 DUP4 ADD DUP10 PUSH2 0xA08 JUMP JUMPDEST DUP2 DUP2 SUB PUSH1 0x20 DUP4 ADD MSTORE PUSH2 0xAB4 DUP2 DUP9 PUSH2 0x9A0 JUMP JUMPDEST SWAP1 POP DUP2 DUP2 SUB PUSH1 0x40 DUP4 ADD MSTORE PUSH2 0xAC8 DUP2 DUP8 PUSH2 0x9A0 JUMP JUMPDEST SWAP1 POP DUP2 DUP2 SUB PUSH1 0x60 DUP4 ADD MSTORE PUSH2 0xADC DUP2 DUP7 PUSH2 0x9A0 JUMP JUMPDEST SWAP1 POP PUSH2 0xAEB PUSH1 0x80 DUP4 ADD DUP6 PUSH2 0x925 JUMP JUMPDEST PUSH2 0xAF8 PUSH1 0xA0 DUP4 ADD DUP5 PUSH2 0x925 JUMP JUMPDEST SWAP8 SWAP7 POP POP POP POP POP POP POP JUMP JUMPDEST PUSH32 0x596F7520617265206E6F7420746865206F776E65720000000000000000000000 PUSH0 DUP3 ADD MSTORE POP JUMP JUMPDEST PUSH0 PUSH2 0xB37 PUSH1 0x15 DUP4 PUSH2 0x982 JUMP JUMPDEST SWAP2 POP PUSH2 0xB42 DUP3 PUSH2 0xB03 JUMP JUMPDEST PUSH1 0x20 DUP3 ADD SWAP1 POP SWAP2 SWAP1 POP JUMP JUMPDEST PUSH0 PUSH1 0x20 DUP3 ADD SWAP1 POP DUP2 DUP2 SUB PUSH0 DUP4 ADD MSTORE PUSH2 0xB64 DUP2 PUSH2 0xB2B JUMP JUMPDEST SWAP1 POP SWAP2 SWAP1 POP JUMP JUMPDEST PUSH32 0x4E487B7100000000000000000000000000000000000000000000000000000000 PUSH0 MSTORE PUSH1 0x11 PUSH1 0x4 MSTORE PUSH1 0x24 PUSH0 REVERT JUMPDEST PUSH0 PUSH2 0xBA2 DUP3 PUSH2 0x83A JUMP JUMPDEST SWAP2 POP PUSH32 0xFFFFFFFFFFFFFFFFFFFFFFFFFFFFFFFFFFFFFFFFFFFFFFFFFFFFFFFFFFFFFFFF DUP3 SUB PUSH2 0xBD4 JUMPI PUSH2 0xBD3 PUSH2 0xB6B JUMP JUMPDEST JUMPDEST PUSH1 0x1 DUP3 ADD SWAP1 POP SWAP2 SWAP1 POP JUMP JUMPDEST PUSH32 0x4E487B7100000000000000000000000000000000000000000000000000000000 PUSH0 MSTORE PUSH1 0x22 PUSH1 0x4 MSTORE PUSH1 0x24 PUSH0 REVERT JUMPDEST PUSH0 PUSH1 0x2 DUP3 DIV SWAP1 POP PUSH1 0x1 DUP3 AND DUP1 PUSH2 0xC23 JUMPI PUSH1 0x7F DUP3 AND SWAP2 POP JUMPDEST PUSH1 0x20 DUP3 LT DUP2 SUB PUSH2 0xC36 JUMPI PUSH2 0xC35 PUSH2 0xBDF JUMP JUMPDEST JUMPDEST POP SWAP2 SWAP1 POP JUMP JUMPDEST PUSH0 DUP2 SWAP1 POP DUP2 PUSH0 MSTORE PUSH1 0x20 PUSH0 KECCAK256 SWAP1 POP SWAP2 SWAP1 POP JUMP JUMPDEST PUSH0 PUSH1 0x20 PUSH1 0x1F DUP4 ADD DIV SWAP1 POP SWAP2 SWAP1 POP JUMP JUMPDEST PUSH0 DUP3 DUP3 SHL SWAP1 POP SWAP3 SWAP2 POP POP JUMP JUMPDEST PUSH0 PUSH1 0x8 DUP4 MUL PUSH2 0xC98 PUSH32 0xFFFFFFFFFFFFFFFFFFFFFFFFFFFFFFFFFFFFFFFFFFFFFFFFFFFFFFFFFFFFFFFF DUP3 PUSH2 0xC5D JUMP JUMPDEST PUSH2 0xCA2 DUP7 DUP4 PUSH2 0xC5D JUMP JUMPDEST SWAP6 POP DUP1 NOT DUP5 AND SWAP4 POP DUP1 DUP7 AND DUP5 OR SWAP3 POP POP POP SWAP4 SWAP3 POP POP POP JUMP JUMPDEST PUSH0 DUP2 SWAP1 POP SWAP2 SWAP1 POP JUMP JUMPDEST PUSH0 PUSH2 0xCDD PUSH2 0xCD8 PUSH2 0xCD3 DUP5 PUSH2 0x83A JUMP JUMPDEST PUSH2 0xCBA JUMP JUMPDEST PUSH2 0x83A JUMP JUMPDEST SWAP1 POP SWAP2 SWAP1 POP JUMP JUMPDEST PUSH0 DUP2 SWAP1 POP SWAP2 SWAP1 POP JUMP JUMPDEST PUSH2 0xCF6 DUP4 PUSH2 0xCC3 JUMP JUMPDEST PUSH2 0xD0A PUSH2 0xD02 DUP3 PUSH2 0xCE4 JUMP JUMPDEST DUP5 DUP5 SLOAD PUSH2 0xC69 JUMP JUMPDEST DUP3 SSTORE POP POP POP POP JUMP JUMPDEST PUSH0 PUSH0 SWAP1 POP SWAP1 JUMP JUMPDEST PUSH2 0xD21 PUSH2 0xD12 JUMP JUMPDEST PUSH2 0xD2C DUP2 DUP5 DUP5 PUSH2 0xCED JUMP JUMPDEST POP POP POP JUMP JUMPDEST JUMPDEST DUP2 DUP2 LT ISZERO PUSH2 0xD4F JUMPI PUSH2 0xD44 PUSH0 DUP3 PUSH2 0xD19 JUMP JUMPDEST PUSH1 0x1 DUP2 ADD SWAP1 POP PUSH2 0xD32 JUMP JUMPDEST POP POP JUMP JUMPDEST PUSH1 0x1F DUP3 GT ISZERO PUSH2 0xD94 JUMPI PUSH2 0xD65 DUP2 PUSH2 0xC3C JUMP JUMPDEST PUSH2 0xD6E DUP5 PUSH2 0xC4E JUMP JUMPDEST DUP2 ADD PUSH1 0x20 DUP6 LT ISZERO PUSH2 0xD7D JUMPI DUP2 SWAP1 POP JUMPDEST PUSH2 0xD91 PUSH2 0xD89 DUP6 PUSH2 0xC4E JUMP JUMPDEST DUP4 ADD DUP3 PUSH2 0xD31 JUMP JUMPDEST POP POP JUMPDEST POP POP POP JUMP JUMPDEST PUSH0 DUP3 DUP3 SHR SWAP1 POP SWAP3 SWAP2 POP POP JUMP JUMPDEST PUSH0 PUSH2 0xDB4 PUSH0 NOT DUP5 PUSH1 0x8 MUL PUSH2 0xD99 JUMP JUMPDEST NOT DUP1 DUP4 AND SWAP2 POP POP SWAP3 SWAP2 POP POP JUMP JUMPDEST PUSH0 PUSH2 0xDCC DUP4 DUP4 PUSH2 0xDA5 JUMP JUMPDEST SWAP2 POP DUP3 PUSH1 0x2 MUL DUP3 OR SWAP1 POP SWAP3 SWAP2 POP POP JUMP JUMPDEST PUSH2 0xDE5 DUP3 PUSH2 0x978 JUMP JUMPDEST PUSH8 0xFFFFFFFFFFFFFFFF DUP2 GT ISZERO PUSH2 0xDFE JUMPI PUSH2 0xDFD PUSH2 0x716 JUMP JUMPDEST JUMPDEST PUSH2 0xE08 DUP3 SLOAD PUSH2 0xC0C JUMP JUMPDEST PUSH2 0xE13 DUP3 DUP3 DUP6 PUSH2 0xD53 JUMP JUMPDEST PUSH0 PUSH1 0x20 SWAP1 POP PUSH1 0x1F DUP4 GT PUSH1 0x1 DUP2 EQ PUSH2 0xE44 JUMPI PUSH0 DUP5 ISZERO PUSH2 0xE32 JUMPI DUP3 DUP8 ADD MLOAD SWAP1 POP JUMPDEST PUSH2 0xE3C DUP6 DUP3 PUSH2 0xDC1 JUMP JUMPDEST DUP7 SSTORE POP PUSH2 0xEA3 JUMP JUMPDEST PUSH1 0x1F NOT DUP5 AND PUSH2 0xE52 DUP7 PUSH2 0xC3C JUMP JUMPDEST PUSH0 JUMPDEST DUP3 DUP2 LT ISZERO PUSH2 0xE79 JUMPI DUP5 DUP10 ADD MLOAD DUP3 SSTORE PUSH1 0x1 DUP3 ADD SWAP2 POP PUSH1 0x20 DUP6 ADD SWAP5 POP PUSH1 0x20 DUP2 ADD SWAP1 POP PUSH2 0xE54 JUMP JUMPDEST DUP7 DUP4 LT ISZERO PUSH2 0xE96 JUMPI DUP5 DUP10 ADD MLOAD PUSH2 0xE92 PUSH1 0x1F DUP10 AND DUP3 PUSH2 0xDA5 JUMP JUMPDEST DUP4 SSTORE POP JUMPDEST PUSH1 0x1 PUSH1 0x2 DUP9 MUL ADD DUP9 SSTORE POP POP POP JUMPDEST POP POP POP POP POP POP JUMP JUMPDEST PUSH0 PUSH1 0xC0 DUP3 ADD SWAP1 POP PUSH2 0xEBE PUSH0 DUP4 ADD DUP10 PUSH2 0x925 JUMP JUMPDEST DUP2 DUP2 SUB PUSH1 0x20 DUP4 ADD MSTORE PUSH2 0xED0 DUP2 DUP9 PUSH2 0x9A0 JUMP JUMPDEST SWAP1 POP DUP2 DUP2 SUB PUSH1 0x40 DUP4 ADD MSTORE PUSH2 0xEE4 DUP2 DUP8 PUSH2 0x9A0 JUMP JUMPDEST SWAP1 POP DUP2 DUP2 SUB PUSH1 0x60 DUP4 ADD MSTORE PUSH2 0xEF8 DUP2 DUP7 PUSH2 0x9A0 JUMP JUMPDEST SWAP1 POP PUSH2 0xF07 PUSH1 0x80 DUP4 ADD DUP6 PUSH2 0x925 JUMP JUMPDEST PUSH2 0xF14 PUSH1 0xA0 DUP4 ADD DUP5 PUSH2 0x925 JUMP JUMPDEST SWAP8 SWAP7 POP POP POP POP POP POP POP JUMP JUMPDEST PUSH32 0x496E76616C69642070726F647563742049440000000000000000000000000000 PUSH0 DUP3 ADD MSTORE POP JUMP JUMPDEST PUSH0 PUSH2 0xF53 PUSH1 0x12 DUP4 PUSH2 0x982 JUMP JUMPDEST SWAP2 POP PUSH2 0xF5E DUP3 PUSH2 0xF1F JUMP JUMPDEST PUSH1 0x20 DUP3 ADD SWAP1 POP SWAP2 SWAP1 POP JUMP JUMPDEST PUSH0 PUSH1 0x20 DUP3 ADD SWAP1 POP DUP2 DUP2 SUB PUSH0 DUP4 ADD MSTORE PUSH2 0xF80 DUP2 PUSH2 0xF47 JUMP JUMPDEST SWAP1 POP SWAP2 SWAP1 POP JUMP INVALID LOG2 PUSH5 0x6970667358 0x22 SLT KECCAK256 0x29 EXTCODEHASH LOG2 PUSH25 0xAD4522E5AD79343F435AD6845BF76E3E5867DB228DF6435E2B RETURNDATASIZE BLOBHASH 0x2F PUSH5 0x736F6C6343 STOP ADDMOD 0x1E STOP CALLER "
				},
				"gasEstimates": {
					"creation": {
						"codeDepositCost": "805800",
						"executionCost": "25100",
						"totalCost": "830900"
					},
					"external": {
						"CarCount()": "2425",
						"RegisterCar(string,string,string,uint256)": "infinite",
						"cars(uint256)": "infinite",
						"getCarDetails(uint256)": "infinite",
						"owner()": "2551"
					}
				},
				"methodIdentifiers": {
					"CarCount()": "449c0924",
					"RegisterCar(string,string,string,uint256)": "0101e185",
					"cars(uint256)": "f7746e36",
					"getCarDetails(uint256)": "472ec454",
					"owner()": "8da5cb5b"
				}
			},
			"storageLayout": {
				"storage": [
					{
						"astId": 3,
						"contract": "VehicleTrackingSystem.sol:VehicleTrackingSystem",
						"label": "owner",
						"offset": 0,
						"slot": "0",
						"type": "t_address"
					},
					{
						"astId": 5,
						"contract": "VehicleTrackingSystem.sol:VehicleTrackingSystem",
						"label": "CarCount",
						"offset": 0,
						"slot": "1",
						"type": "t_uint256"
					},
					{
						"astId": 23,
						"contract": "VehicleTrackingSystem.sol:VehicleTrackingSystem",
						"label": "cars",
						"offset": 0,
						"slot": "2",
						"type": "t_mapping(t_uint256,t_struct(Car)18_storage)"
					}
				],
				"types": {
					"t_address": {
						"encoding": "inplace",
						"label": "address",
						"numberOfBytes": "20"
					},
					"t_mapping(t_uint256,t_struct(Car)18_storage)": {
						"encoding": "mapping",
						"key": "t_uint256",
						"label": "mapping(uint256 => struct VehicleTrackingSystem.Car)",
						"numberOfBytes": "32",
						"value": "t_struct(Car)18_storage"
					},
					"t_string_storage": {
						"encoding": "bytes",
						"label": "string",
						"numberOfBytes": "32"
					},
					"t_struct(Car)18_storage": {
						"encoding": "inplace",
						"label": "struct VehicleTrackingSystem.Car",
						"members": [
							{
								"astId": 7,
								"contract": "VehicleTrackingSystem.sol:VehicleTrackingSystem",
								"label": "manufacturer",
								"offset": 0,
								"slot": "0",
								"type": "t_address"
							},
							{
								"astId": 9,
								"contract": "VehicleTrackingSystem.sol:VehicleTrackingSystem",
								"label": "car_name",
								"offset": 0,
								"slot": "1",
								"type": "t_string_storage"
							},
							{
								"astId": 11,
								"contract": "VehicleTrackingSystem.sol:VehicleTrackingSystem",
								"label": "car_model",
								"offset": 0,
								"slot": "2",
								"type": "t_string_storage"
							},
							{
								"astId": 13,
								"contract": "VehicleTrackingSystem.sol:VehicleTrackingSystem",
								"label": "origin",
								"offset": 0,
								"slot": "3",
								"type": "t_string_storage"
							},
							{
								"astId": 15,
								"contract": "VehicleTrackingSystem.sol:VehicleTrackingSystem",
								"label": "price",
								"offset": 0,
								"slot": "4",
								"type": "t_uint256"
							},
							{
								"astId": 17,
								"contract": "VehicleTrackingSystem.sol:VehicleTrackingSystem",
								"label": "timestamp",
								"offset": 0,
								"slot": "5",
								"type": "t_uint256"
							}
						],
						"numberOfBytes": "192"
					},
					"t_uint256": {
						"encoding": "inplace",
						"label": "uint256",
						"numberOfBytes": "32"
					}
				}
			},
			"userdoc": {
				"kind": "user",
				"methods": {},
				"version": 1
			}
		}
	}
}